:020000041004E6
:1000000000000120B52C04104929041051290410C6
:1000100000000000000000000000000000000000E0
:10002000000000000000000000000000592904103A
:100030000000000000000000632904106D29041076
:10004000192D0410192D0410192D0410192D041048
:10005000000000000000000000000000192D041046
:10006000192D0410192D0410192D0410192D041028
:10007000192D0410192D041000000000192D041072
:10008000192D0410192D0410192D04100000000062
:10009000192D04100000000000000000192D0410AC
:1000A000192D0410192D0410192D0410192D0410E8
:1000B000192D0410000000000000000000000000E6
:1000C000002243088B4274D303098B425FD3030A97
:1000D0008B4244D3030B8B4228D3030C8B420DD3AA
:1000E000FF22090212BA030C8B4202D31212090238
:1000F00065D0030B8B4219D300E0090AC30B8B4276
:1001000001D3CB03C01A5241830B8B4201D38B0323
:10011000C01A5241430B8B4201D34B03C01A5241C8
:10012000030B8B4201D30B03C01A5241C30A8B420B
:1001300001D3CB02C01A5241830A8B4201D38B02F6
:10014000C01A5241430A8B4201D34B02C01A52419A
:10015000030A8B4201D30B02C01A5241CDD2C3090C
:100160008B4201D3CB01C01A524183098B4201D388
:100170008B01C01A524143098B4201D34B01C01A73
:10018000524103098B4201D30B01C01A5241C308EB
:100190008B4201D3CB00C01A524183088B4201D35A
:1001A0008B00C01A524143088B4201D34B00C01A46
:1001B0005241411A00D20146524110467047FFE7B2
:1001C00001B5002000F006F802BDC0460029F7D0B6
:1001D00076E770477047C04670B500220C4B0400AC
:1001E0000D0000F0D7FF002804D12000290000F006
:1001F00033FF70BD064B00222000290000F022FBD7
:1002000000F02AFF80231B069C466044F1E7C046AD
:100210000000E041F0B5DE46454657464E46E0B5A3
:1002200087B0009201930B031B0B9B46CA0F4B0038
:10023000040080465B0D029200D198E07C4A934214
:1002400037D05946420FC9000A438021090411439F
:10025000C2009046774A894692469A440023002479
:100260000393009E019F3B031B0B9B467B003000CA
:100270005B0DFD0F002B59D06D4A934248D0594673
:10028000720FC9000A438021090411438B46694952
:10029000F2008C4651466344CB1A9A460021029ED6
:1002A0006E40F6B20F2C00D9CEE0634BA4001B5970
:1002B0009F465A460243914600D090E09A46022358
:1002C000904608240393CCE7CB464246029D03990F
:1002D000022900D1DEE1032900D18DE0012900D0FF
:1002E00079E12E0000220023002490461B052343C1
:1002F000F60733434046190007B0F0BCBB46B24690
:10030000A946A046F0BD002200249046484BEDE7E8
:100310005A46009B1A43494B9C46E244002A59D155
:1003200002231C43002302219B46B8E75A46009B48
:100330001A4349D05B46002B00D19CE1584600F09F
:1003400033FF020003000B3A1D27009EBA1A190062
:100350005846D64008398840320002439346009AF6
:100360008A40374953448A4600219A4497E75B46BE
:100370000343994621D05B46002B00D169E15846E2
:1003800000F012FF0B235B429C4602008444664649
:100390001D239B1B260011005846DE40083988406B
:1003A00033000343994623008B409846254B002495
:1003B0009B1A9A460023039353E7002398469A46D4
:1003C0000133042403934CE701231C430023012140
:1003D0009B4664E70323320003211C435FE79A46F0
:1003E0000323D9460C2403933BE70023802498463B
:1003F00000260F4B240379E780245B4624031C432B
:1004000024032E0090460A4B240B6FE780244B46B2
:100410002403234202D05B462342F0D080244B4683
:1004200024031C432403029E014B240B5EE7C046B9
:10043000FF07000001FCFFFF7C44041001F8FFFFF0
:10044000F30300000DFCFFFFCB4500D2F8E000D124
:10045000F3E001235B429C46444648460025E244C3
:100460005B46170E1B021F43190C3B041202009738
:100470001F0C914602910397FFF7A8FE02007A43F2
:100480000B04210C804619438A4209D9009F01239D
:10049000BC465B4261449C46E0448F4200D85CE12C
:1004A000881A0299FFF792FE039A24044243090432
:1004B000240C03000C43A24206D90099013B8C4650
:1004C0006444A14200D842E1A01A424612041A43F1
:1004D00093464B4659461B0C1F0004930B04494698
:1004E0000904090C0C001B0C5C43120C7B4388466E
:1004F00051437A43270CBC465B186344994203D9A5
:10050000802149028C466244190C24041B04240CEB
:100510008A181C19904202D316D1A54214D25B4608
:10052000009F013B4D4405934D459B41BC465B42BA
:100530006344C018874200D302E1824200D929E116
:1005400000D124E1059B9B462C1BA542AD41009B9D
:10055000801A6D42401B834200D10FE10299FFF7E0
:1005600035FE039A0B044243210C050019438A42CD
:1005700000D9CBE0881A0299FFF728FE039A2404D9
:1005800042430904240C03000C43A24200D9CAE0F0
:100590004146A41A2A041A43049F13041B0C59430E
:1005A00040467B439C46150C68430B0C84446344D3
:1005B0007D43984203D98020400284466544180C4C
:1005C00009041B04090C40195B18844227D323D06B
:1005D000012335001A43944B5344002B60DD51072F
:1005E00000D086E02E00D1085A46D20106D55A46E0
:1005F0008E4B1A4080239346DB0053448C4A93422F
:1006000000DD80E65A4652070A4390465A465B058B
:100610005402240B5B0D69E63500002BDBD0009DF6
:10062000511EAC466444AC4200D29EE0844200D2EB
:10063000E1E000D1EEE00A00CAE7424500D908E750
:100640004B46DC07580843465B081C434346DD071E
:1006500006E700F0A9FD15239C468444020063468A
:1006600020321C2B00DC92E6230008388340994698
:10067000002398469AE600F097FD02000300153229
:1006800020331C2A00DC5FE60099083881400022F4
:100690008B4666E600222E0000249046654B25E638
:1006A0002E000121C91A382900DD1BE61F297EDC36
:1006B0006148140050445B4682408340CC40501E49
:1006C000824123431A435B46CB40510709D00F2197
:1006D0001140042905D0111D9142924152429B18AC
:1006E0000A00190200D49BE0002201230024904656
:1006F000FCE50F211140042900D173E7111D91423F
:10070000924152422E00C90893446DE7009B013D7F
:100710009C4661448B4200D92CE78A4200D829E7E5
:10072000851E614426E70099013B8C466444A14242
:1007300000D92DE7A24200D82AE7831E644427E7A8
:10074000874200D0FEE6A94500D9FBE6F5E6A242C5
:1007500000D8B9E6831E6444B6E68A4200D89FE614
:10076000BC46831E984661449AE60A00844200D043
:100770002EE74B4500D02BE735002CE72A4B2F4ABC
:100780005344924543DB0122002193442CE7AC42C1
:1007900000D8D7E602235B429C4600994D444D4564
:1007A0009B41E3448C465B426344C018CCE61F2067
:1007B0004042C31A5846D840202904D05946204BFD
:1007C000534499400A43531E9A4107231900024398
:1007D00000241140134209D008331340042B1DD0CC
:1007E000131D934289411A0049424907D2080A431E
:1007F000904600237AE54946009F4D004D458941CA
:10080000BC4649426144A946023A6418AEE7012257
:10081000524246E79945EED30A00AAE70021E5E7F0
:1008200059075B021C0BE1E7FF030000FFFFFFFE1F
:10083000FE070000FF0700001E04000002FCFFFF8F
:100840003E040000F0B557464E464546DE46E0B54C
:1008500083B0009001910C034D00CE0F610A009C03
:100860005F00640F0C43009900920193C8001903C4
:100870007B0D9946019BCC4FDB0F9C464B0A0099A0
:100880008046490F1943009B8B46DA0092466D0D56
:10089000B94500D1BFE00123614659404B468C4623
:1008A000EB1A8E4275D0002B00DCA3E249460029EA
:1008B00000D1CEE0BD4200D100E20127382B19DC87
:1008C000802759463F0439438B461F2B00DDFAE150
:1008D0002027F91A8C4659466746B9400F00110087
:1008E000D9400F4361468A40511E8A415946D9403A
:1008F0001743641AC71BB84280414042241A23029E
:1009000000D440E16402640A002C00D154E12000CC
:1009100000F04AFC0300083B20213800CA1AD040EE
:100920009C4002009F4022439D4200DDA6E1581BEF
:100930000130091A3C008F40C4407B1E9F411300C8
:100940008B4027431F43C2403B0014000025134344
:1009500000D1F7E17B0700D177E30F2338003B405C
:10096000042B04D0381DB842BF417F42E419230252
:1009700000D468E38C4B01359D4200D1F4E08B4BF1
:100980006D051C406D0D6707C00864020743240B0A
:10099000ECE0002B00DC29E34946002900D0D6E03A
:1009A0005946114300D12EE1591E012B00D1E6E139
:1009B000BB4200D182E101270B00382914DC1F2B38
:1009C00000DD3CE22027F91A8C4659466746B940BB
:1009D0000F001100D9400F4361468A40511E8A41E1
:1009E0005946D940174364183F1887428041404216
:1009F0002418230200D4C6E06B4B01359D4200D180
:100A0000B2E00121694B7A081C4039400A43E707EC
:100A1000174364089EE7664B11438A46EB1800298A
:100A200028D066452CD0002B5BD0002D00D12CE1C6
:100A30005B4666465F07D2081743DD083B002B4341
:100A400000D1E2E0802424032C432403564D240BE0
:100A50008CE05946114300D1D5E0591E012B00D13D
:100A6000B9E1BB4200D1B1E101270B00382900DD1B
:100A700040E72AE76146012779408C466645D2D196
:100A8000002B00D1C5E0002D00D055E14B462500DC
:100A9000054300D112E2591E8C46012B00D149E2D8
:100AA000414DAB4200D18FE20127382911DC63466A
:100AB0001F2B00DD5BE26146202327005B1A050047
:100AC00098409F40CD40431E9841CC402F43074360
:100AD000A344BF189742924152425A4414004D46D3
:100AE00087E7344F6B1C3B4200D0B6E059462300E9
:100AF00011430F000343002D00D026E1002B00D14D
:100B0000C0E1002900D1A1E0831A98465B46404528
:100B1000AD41E31A6D425B1B80252D042B4200D1B1
:100B20004BE15B46101A824292411C1B07000126D2
:100B300063465242A41A27431E40002F00D142E1CF
:100B40002C4200D16DE2194B01251C401BE7BD4230
:100B500000D13BE10127382B00DD45E780275946CE
:100B60003F0439438B462AE7002400272D052543FF
:100B7000F60735433800290003B0F0BCBB46B24647
:100B8000A946A046F0BD7B0704D00F233B40042BB1
:100B900000D0E7E62B00F808034A67070743E5089B
:100BA000934200D14AE7A5E0FF070000FFFF7FFF67
:100BB00001F8FFFFFE070000380000F0F5FA03001F
:100BC00018331F2B00DCA7E63A00083882409D420C
:100BD00000DD8AE05B1B581C1F2800DCD8E11700F1
:100BE0001F3BDF40202805D040231B1A9A40531E8C
:100BF0009A4117430025002F00D1E5E07B0700D084
:100C0000ABE62C00C6E7C008C6E700270024D14D9C
:100C1000ACE7D14F6B1C3B4271D123000343002D45
:100C200000D04EE15746002B00D1B5E1002F0DD08A
:100C30008318834280415C4440422418220200D53C
:100C4000C8E11F009846274300D1BCE04346670730
:100C5000DB081F43E50800234CE0831A98465B46F7
:100C60004045BF41E31A7F42DB1B1F027CD447464D
:100C70001F4300D1A6E01C00474645E6B74CED1ADD
:100C800014407B0700D080E784E74B4625000543EE
:100C900066D05F1E012B00D1FCE0AE4DAB4200D10F
:100CA0005EE16646382F00DCB4E00120171ABA4234
:100CB00092415B4652424D469C1A20E66707C008A7
:100CC0000743E508BAE61F005946203FF9400F00E8
:100CD000202B05D04021CB1A594699400A43924611
:100CE00053465A1E93411F4304E6EB1A9B4D154091
:100CF0006F07ED082C035D05240B6D0D36E7954D50
:100D0000AB4200D1D6E08218210082428041594492
:100D100040420818C707520817434408520700D436
:100D200085E10F221D003A40042A00D01AE6FF0890
:100D3000640727430509DDE75B46D2085F071743D1
:100D4000DD087BE60027002410E7002B00D0D6E06A
:100D5000002900D02FE1802400267E4D240305E7E2
:100D600066465C46D00817E75B46171ABA429241BE
:100D70001C1B012663465242A41A1E40C4E5831878
:100D8000834280415C44404225182A0200D4DAE0C4
:100D9000724A5B081540EA071A4369085B0700D4EA
:100DA0004AE10F231340042B00D1FCE0171D9742AA
:100DB000A441644202256418ECE647461C001F4328
:100DC00000D043E7002600250024CFE6C0086707CF
:100DD0000743E50832E6871A5B46B8428041E41AC9
:100DE0004042241A230228D46307FF081F43E50862
:100DF00001237FE7002B00D173E64B465F1B3B00CE
:100E0000002D00D142E7382F00DDECE080230E00FA
:100E10001B041C431F2F25DC20252300ED1B010094
:100E2000A840AB40F940451EA8410B43FC40184385
:100E30005B461B1B9B4639E76646012562E51F00A2
:100E40005946203FF9408C46202B05D04027594673
:100E5000FB1A99400A43924657467B1E9F416346C0
:100E60001F43C1E53B002500203BDD40202F04D07F
:100E70004023DB1B9C40204380464046431E984154
:100E8000284313E700299DD0012663465C4690461F
:100E90001E40DBE6171A5B46BA4292411C1B5242C7
:100EA000A41A2302C8D46307FF081F436646012320
:100EB000E5081FE71D000024002757E65C46D00820
:100EC0006AE6002B00D137E75346C008670707439F
:100ED000E508002B00D1B1E580231B031D4208D09B
:100EE0005946C808184204D1D20849070A431700D6
:100EF00005007B0FFF00FF085B071F439EE5C0084E
:100F000063071843E508002953D080231B031D42C3
:100F10000AD05946CC081C4206D10126634625005A
:100F2000D008490708431E40470FC000C0087F078C
:100F3000074383E58318934292415C445242A518CB
:100F40002A0200D524E76F07DB081F43ED080123C1
:100F5000D0E6C046FF070000FE070000FFFF7FFF4E
:100F60005B46D2085F0766461743DD0866E5250045
:100F7000203BDD406346202B05D0402361465B1AB1
:100F80009C402043804647467B1E9F412F43A0E55F
:100F900020210027091AD2E4002F00D113E75C4674
:100FA00017000025F6E5D708490702230F432D094E
:100FB000A0E6070042E55B4601265F07DD086346C1
:100FC000D20817431E4039E55B46D2085F07174336
:100FD000DD0833E51E4ADB0822405707520201258F
:100FE0001F43140BC2E50E0001205FE6002B0DD05D
:100FF0004B465B1B9C46002D00D148E50127382B52
:1010000000DD66E580231B041C4350E56B1C114D7D
:101010002B4200D073E65946230011438A4603430E
:1010200000E66707C00800230743E50862E6640797
:10103000FF08274305095DE6D208490711430F0061
:1010400002232D0956E60700A4E538008FE4C046C8
:10105000FFFF7FFFFE0700000B00020070B5164D7A
:101060000C0382B04900002000920193240B490D2B
:10107000DE0FA94204DD1148814203DD104BF01858
:1010800002B070BD8020400320430E4C641A1F2C18
:1010900008DD0D4B5B1AD84003005842002EEFD1FB
:1010A0001800EDE7094B009A9C46030061448B4011
:1010B000E2401343F1E7C046FE0300001D040000B8
:1010C000FFFFFF7F3304000013040000EDFBFFFF70
:1010D00070B5002816D0C317C5185D40C40F28008E
:1010E00000F062F8104B1B1A5B055B0D0A2814DC3C
:1010F00002002E00153296400B22121AD5402D0305
:101100002D0B03E000240023002500261B052B43A4
:10111000E40723433000190070BD0B3885402D03D0
:1011200000262D0BF2E7C0461E0400008446100086
:1011300062468C461900634600E0C0461FB500F0C9
:1011400005F9002801D40021C8421FBD10B500F0E8
:1011500049F84042013010BD10B500F0F7F8002802
:1011600001DB002010BD012010BDC04610B500F00D
:10117000EDF8002801DD002010BD012010BDC046A3
:1011800010B500F073F8002801DC002010BD01202C
:1011900010BDC04610B500F069F8002801DA002043
:1011A00010BD012010BDC0461C2101231B04984224
:1011B00001D3000C10391B0A984201D3000A0839E8
:1011C0001B09984201D30009043902A2105C40189F
:1011D0007047C04604030202010101010000000043
:1011E00000000000F0B55746DE464E464546E0B5E5
:1011F0000D000400E80F83460903D80F090B82464F
:1012000019488C461F0369005E00490D3F0B760D9F
:10121000814218D086420FD00120B1420DD1BC4589
:101220000BD1944209D1D3451CD0002905D1604689
:101230002043431E984100E00120F0BCBB46B2466B
:10124000A946A046F0BD01208E42F6D16146394341
:101250000F0017432743F0D15B465246981A431EAE
:101260009841EAE70020E8E7FF070000F0B557469D
:101270004E464546DE46E0B50D000E034900490DD9
:101280008A46DF0FE90FBC4683B02F4F040080462B
:101290000191580019039146360B090B400DBA45D0
:1012A0001DD0B8420DD05746002F2AD13443002814
:1012B00024D10A4336D0002C41D16346580001386E
:1012C00015E0114338D15346002B01D12643F4D009
:1012D000019B634507D1019B5800013807E0264375
:1012E0002AD1504521D00120019B5F42384303B0F1
:1012F000F0BCBB46B246A946A046F0BD002CDCD0EF
:10130000E6E70028EFD0019B6345ECD18245EADC9B
:10131000E1DB8E42E7D8DED1C845E4D80020C845DD
:10132000E5D2D8E7002CE2D0DDE7114304D1019BE0
:101330006345D8D10020DAE702204042D7E7019B7D
:101340006345E6D0CFE7C046FF070000F0B557463B
:101350004E464546DE46E0B50D000E034900490DF8
:101360008A46DF0FE90FBC4683B02E4F040080464B
:101370000191580019039146360B090B400DBA45EF
:101380001ED0B8420DD05746002F27D13443002835
:1013900033D10A4334D0002C40D163465800013881
:1013A00015E0114312D15346002B01D12643F4D04E
:1013B000019B63451DD00120019B5F42384306E03D
:1013C000264303D15045F6D111431CD0022003B06F
:1013D000F0BCBB46B246A946A046F0BD0028EAD004
:1013E000019B6345E7D18245E5DC02DB8E42E2D812
:1013F0000ED0019B58000138E9E7002CCDD0D7E78B
:10140000002CE4D0D7E7019B00206345DFD0D2E772
:10141000C845D0D80020C845D9D2EAE7019B63452A
:10142000E4D0C8E7FF07000080B588B004AF78605B
:101430000A00BB1C1A807B681868BB1C1A8896239C
:101440009B000293022301930C23FB1800930123BA
:10145000AA2102F039F9031E05D00E23FB18012240
:1014600052421A800DE00C217B185B781BB21B02E4
:101470001AB27B181B781BB213431AB20E23FB1847
:101480001A800E23FB181B881800BD4604B080BDCF
:10149000B0B588B004AFF86008007A6019000B247A
:1014A0003B19021C1A700A257B190A1C1A70FB686A
:1014B00018683B191B7899B27B191B789BB296224E
:1014C0009200029201937B68009301230A00AA21F3
:1014D00001F0CCFF03001800BD4604B0B0BD000011
:1014E000B0B584B000AF786039607B683A681A6044
:1014F0000E257C197B68180000F0BCFF03002380D8
:101500007B191B88642B0AD07B680121180000F02E
:10151000F9FE054A7B686421180000F0D1F9C04645
:10152000BD4604B0B0BDC046AC0D000080B582B071
:1015300000AF7860054A7B6811001800FFF774FF60
:1015400003001800BD4602B080BDC046040500007F
:1015500080B582B000AF7860054A7B681100180042
:10156000FFF762FF03001800BD4602B080BDC04611
:101570000607000080B582B000AF7860054A7B683E
:1015800011001800FFF750FF03001800BD4602B01D
:1015900080BDC0460809000080B582B000AF786009
:1015A000054A7B6811001800FFF73EFF0300180092
:1015B000BD4602B080BDC0460B0A000080B582B0B7
:1015C00000AF7860054A7B6811001800FFF72CFF18
:1015D00003001800BD4602B080BDC0460C0D0000DF
:1015E00080B582B000AF7860054A7B6811001800B2
:1015F000FFF71AFF03001800BD4602B080BDC046C9
:101600000F0E000080B582B000AF7860054A7B689D
:1016100011001800FFF708FF03001800BD4602B0D4
:1016200080BDC0461011000080B582B000AF786068
:10163000054A7B6811001800FFF7F6FE030018004A
:10164000BD4602B080BDC0461C1D000080B582B002
:1016500000AF7860054A7B6811001800FFF7E4FED0
:1016600003001800BD4602B080BDC0462829000016
:10167000B0B588B004AFF86008007A6019000B2498
:101680003B19021C1A700A257B190A1C1A70FB6888
:1016900018683B191B7899B27B191B789BB296226C
:1016A0009200029201937B68009301230A00AA2111
:1016B00002F00AF803001800BD4604B0B0BDB0B592
:1016C00084B000AF786008001100FB1C021C1A7087
:1016D000BB1C0A1C1A700C217B1800221A700F25E3
:1016E0007C197A18786801236121FFF7D1FE030085
:1016F00023707B191B78002B02D07B191B7817E015
:101700000F257C19FA1C786801233E21FFF7C0FEE3
:10171000030023707B191B78002B02D07B191B78E8
:1017200006E0BA1C786801233F21FFF7B1FE0300F1
:101730001800BD4604B0B0BDB0B584B000AF050020
:101740000C0010001900FB1D2A1C1A70BB1D221C66
:101750001A707B1D021C1A703B1D0A1C1A700F2187
:101760007B18FA1D1278D2431A707A18BB1D1278B2
:101770001B78D31ADAB27B1D1B78D31ADAB23B1D61
:101780001B78D31ADAB220217B181B78D31ADAB26D
:101790002423FB181B78D31ADAB22823FB181B78F2
:1017A000D31ADAB22C23FB181B78D31ADAB23023FF
:1017B000FB181B78D31ADAB23423FB181B78D31A20
:1017C000DAB220235B18DB191B78D31ADAB23C2378
:1017D000FB181B78D31ADAB23823FB181B78D31AFC
:1017E000DAB2242308001B18DB191B78D31ADAB2EB
:1017F00028231B18DB191B78D31ADAB22C231B18E9
:10180000DB191B78D318DAB230231B18DB191B78CD
:10181000D318DAB234231B18DB191B78D318DAB2C9
:1018200038231B18DB191B78D318DAB23C231B189A
:10183000DB191B78D318DAB240231B18DB191B788D
:10184000D318DAB244231B18DB191B78D318DAB289
:1018500048231B18DB191B78D318DAB24C231B184A
:10186000DB191B78D318DAB250231B18DB191B784D
:10187000D318DAB254231B18DB191B78D318DAB249
:1018800058231B18DB191B78D318DAB25C231B18FA
:10189000DB191B78D318D9B20E243B196022121819
:1018A000D21912788A181A700D217B183A191278F9
:1018B000D2431A707B181B781800BD4604B0B0BD27
:1018C000F0B5DE4657464E464546E0B5BFB01AAFC6
:1018D000F864080011004A243B19021C1A804820B1
:1018E0003B180A1C1A803B191B88DAB22923010015
:1018F0005B18DB191A7020003B181B881B0A9BB26F
:10190000DAB22A235B18DB191A7046250E006B1811
:10191000DC193B181B880A211800FEF7D1FB0300D5
:10192000238029008A19D3191B88DAB227239C192E
:10193000E3191A708A19D3191B881B0A9BB2DAB2F1
:1019400028239919CB191A704425AA19D4194A23A6
:10195000FB181B880A211800FEF7B2FB0300238046
:1019600029008A19D3191B88DAB2232334001D19E0
:10197000EB191A700A19D3191B881B0A9BB2DAB229
:1019800024231919CB191A704A23FB181B88180035
:10199000FFF79EFBDC4ADD4BFEF73CFC02000B0030
:1019A000422526002919CC1910001900FEF714FC55
:1019B00003002380290030000A18D3191B88DAB2EB
:1019C00025231C18E3191A700A18D3191B881B0A3F
:1019D0009BB2DAB226231918CB191A703B181B8850
:1019E000DAB21F231918CB191A7006003B181B888E
:1019F0001B0A9BB2DAB220239919CB191A70402521
:101A0000AA19D4194A23FB181B8819211800FEF7BC
:101A100057FB0300238029008A19D3191B88DAB2E7
:101A2000212335005819C3191A704A19D3191B8874
:101A30001B0A9BB2DAB222235919CB191A704A2316
:101A4000FB181B8864211800FEF73AFB03009CB2C8
:101A50007B191B8864211800FEF732FB03009AB241
:101A60003E2128000B18DB1962431A800B18DB1982
:101A70001B88DAB21D231B18DB191A700B18DB192F
:101A80001B881B0A9BB2DAB21E231B18DB191A70C3
:101A900018210B18DB199E4A1A8004000B18DA195A
:101AA000F86C02230021FFF7F3FC142120000B182F
:101AB000DB19974A1A8004000B18DA19F86C022314
:101AC0000021FFF7E5FC102120000B18DB19132281
:101AD0001A800B18DA19F86C02230021FFF7D8FCE2
:101AE000052001F09FF93C254826AB19DC19FB6C59
:101AF0001800FFF72DFD03002380AB19DB191B88AD
:101B000010221340EFD03B25AB19DC19FB6C0022EF
:101B100052211800FFF7D3FD03002370AB19DB1926
:101B20001B78002B04D0AB19DB191B7800F0E1FB0C
:101B3000012001F077F93B254826AB19DC19392340
:101B40009B19DA19F86C01236021FFF791FD03005E
:101B50002370AB19DB191B78002B04D0AB19DB19F0
:101B60001B7800F0C6FB012001F05CF93B254826FC
:101B7000AB19DC1937239B19DA19F86C01234621BC
:101B8000FFF776FD03002370AB19DB191B78002BE0
:101B900004D0AB19DB191B7800F0ABFB012001F07E
:101BA00041F93B254826AB19DC1938239B19DA1972
:101BB000F86C01234721FFF75BFD03002370AB198D
:101BC000DB191B78002B03D0AB19DB191B7890E3D2
:101BD000012001F027F93B254826AB19DC193623F3
:101BE0009B19DA19F86C01235521FFF741FD030019
:101BF0002370AB19DB191B78002B03D0AB19DB1951
:101C00001B7876E3012001F00DF93B254826AB193E
:101C1000DC1935239B19DA19F86C01235621FFF7DB
:101C200027FD03002370AB19DB191B78002B03D0B1
:101C3000AB19DB191B785CE3012001F0F3F83B25BD
:101C40004826AB19DC1933239B19DA19F86C0123E8
:101C50004021FFF70DFD03002370AB19DB191B7842
:101C6000002B03D0AB19DB191B7842E3012001F0F4
:101C7000D9F83B254826AB19DC1934239B19DA190E
:101C8000F86C01234121FFF7F3FC03002370AB192B
:101C9000DB191B78002B03D0AB19DB191B7828E369
:101CA000012001F0BFF83B254826AB19DC19312390
:101CB0009B19DA19F86C01234221FFF7D9FC0300C4
:101CC0002370AB19DB191B78002B03D0AB19DB1980
:101CD0001B780EE3012001F0A5F83B254826AB193F
:101CE000DC1932239B19DA19F86C01234321FFF721
:101CF000BFFC03002370AB19DB191B78002B09D044
:101D0000AB19DB191B78F4E23333333333B3304090
:101D10000080FFFF012001F085F83B254826AB1924
:101D2000DC192F239B19DA19F86C01234421FFF7E2
:101D30009FFC03002370AB19DB191B78002B03D029
:101D4000AB19DB191B78D4E2012001F06BF83B25BD
:101D50004826AB19DC1930239B19DA19F86C0123DA
:101D60004521FFF785FC03002370AB19DB191B78B5
:101D7000002B03D0AB19DB191B78BAE2012001F06C
:101D800051F83B254826AB19DC192D239B19DA198C
:101D9000F86C01234821FFF76BFC03002370AB199B
:101DA000DB191B78002B03D0AB19DB191B78A0E2E1
:101DB000012001F037F83B254826AB19DC192E230A
:101DC0009B19DA19F86C01234921FFF751FC030034
:101DD0002370AB19DB191B78002B03D0AB19DB196F
:101DE0001B7886E2012001F01DF83B254826AB193F
:101DF000DC192B239B19DA19F86C01234A21FFF710
:101E000037FC03002370AB19DB191B78002B03D0C0
:101E1000AB19DB191B786CE2012001F003F83B25BC
:101E20004826AB19DC192C239B19DA19F86C01230D
:101E30004B21FFF71DFC03002370AB19DB191B7846
:101E4000002B03D0AB19DB191B7852E2012000F004
:101E5000E9FF3B254826AB19DC1929239B19DA1920
:101E6000F86C01234621FFF713FB03002370AB1925
:101E7000DB191B78002B03D0AB19DB191B7838E278
:101E80003B254826AB19DC192A239B19DA19F86C73
:101E900001234721FFF7FCFA03002370AB19DB197C
:101EA0001B78002B03D0AB19DB191B7821E23B25F3
:101EB0004826AB19DC1927239B19DA19F86C012382
:101EC0005521FFF7E5FA03002370AB19DB191B78E6
:101ED000002B03D0AB19DB191B780AE23B254826FF
:101EE000AB19DC1928239B19DA19F86C0123562148
:101EF000FFF7CEFA03002370AB19DB191B78002B18
:101F000003D0AB19DB191B78F3E13B254826AB194D
:101F1000DC1925239B19DA19F86C01234021FFF7FE
:101F2000B7FA03002370AB19DB191B78002B03D021
:101F3000AB19DB191B78DCE13B254826AB19DC1912
:101F400026239B19DA19F86C01234121FFF7A0FA27
:101F500003002370AB19DB191B78002B03D0AB19DE
:101F6000DB191B78C5E13B254826AB19DC19232377
:101F70009B19DA19F86C01234221FFF789FA030053
:101F80002370AB19DB191B78002B03D0AB19DB19BD
:101F90001B78AEE13B254826AB19DC1924239B199D
:101FA000DA19F86C01234321FFF772FA030023705A
:101FB000AB19DB191B78002B03D0AB19DB191B788D
:101FC00097E13B254826AB19DC1921239B19DA1927
:101FD000F86C01234421FFF75BFA03002370AB196F
:101FE000DB191B78002B03D0AB19DB191B7880E1C0
:101FF0003B254826AB19DC1922239B19DA19F86C0A
:1020000001234521FFF744FA03002370AB19DB19C4
:102010001B78002B03D0AB19DB191B7869E13B253A
:102020004826AB19DC191F239B19DA19F86C012318
:102030004A21FFF72DFA03002370AB19DB191B7837
:10204000002B03D0AB19DB191B7852E13B25482646
:10205000AB19DC1920239B19DA19F86C01234B21E9
:10206000FFF716FA03002370AB19DB191B78002B5E
:1020700003D0AB19DB191B783BE13B254826AB1994
:10208000DC191D239B19DA19F86C01234821FFF78D
:10209000FFF903002370AB19DB191B78002B03D069
:1020A000AB19DB191B7824E13B254826AB19DC1959
:1020B0001E239B19DA19F86C01234921FFF7E8F96F
:1020C00003002370AB19DB191B78002B03D0AB196D
:1020D000DB191B780DE1392348215B18DB191B78CC
:1020E0007B6438225318DB191A783A6437240A00C3
:1020F000A318DB191C78FC633525AB18DB191D7898
:10210000BD633626B318DB191E787E6334218B1825
:10211000DB1919783963332011004318DB1918785B
:10212000F86232246318DB191C78BC6231256B1805
:10213000DB191D787D6230235B18DB191B783B624D
:102140002F225318DB191A78FA612E260A00B318C9
:10215000DB191E78BE612D218B18DB191978796186
:102160002C2011004318DB19187838612B246318D0
:10217000DB191C78FC602A256B18DB191D78BD6003
:1021800029235B18DB191B787B6028225318DB1985
:102190001A78934627225318DB191A78924626227A
:1021A0005318DB191A78914625225318DB191A782F
:1021B000904624225318DB191A7894462322531888
:1021C000DB191B783B6022225318DB191D78212272
:1021D0005318DB191C7820225318DB1918781F229A
:1021E0000E005318DB1919781E229319DB191A787F
:1021F0001D239B19DB191B781893179216911590C4
:10220000149413953B6812936246119242461092C1
:102210004A460F9252460E925A460D927B680C9394
:10222000BD680B95FC680A94386909907969089132
:10223000BE690796FA6906923B6A05937D6A049522
:10224000BC6A0394F86A0290396B01917E6B009628
:10225000BB6BFA6B396C786CFFF76EFA03001A00EF
:102260003A2148268B19DB191A703B25AB19DC196A
:102270008B19DA19F86C01236021FFF709F90300C3
:102280002370AB19DB191B78002B03D0AB19DB19BA
:102290001B782EE03C254826AB19DC19FB6C180096
:1022A000FFF756F903002380AB19DB191B881022B6
:1022B0001340EFD00C218B19DB190C221A808B19DB
:1022C000DA19F86C02230021FFF7E2F8012000F090
:1022D000A9FD08218B19DB1942221A808B19DA1902
:1022E000F86C02230021FFF7D3F8012000F09AFDDB
:1022F00000231800BD4625B0F0BCBB46B246A94637
:10230000A046F0BDB0B58CB000AF78600A00FB1CF1
:102310001A7028217B18564A1A807A187868022386
:102320000021FFF7B5F824217B18514A1A807A184A
:10233000786802230021FFF7ABF820217B180822E0
:102340001A807A18786802230021FFF7A1F82F2558
:102350007C192B23FA18786802230021FFF788F9EB
:10236000030023707B191B78002B02D07B191B788C
:1023700079E01C217B1813221A807A1878680223CE
:102380000021FFF785F82C257C197B681800FFF7E2
:10239000DFF8030023807B191B8810221340F2D042
:1023A000FB1C1B78022B1BD025DC002B02D0012B41
:1023B0000BD020E018217B1830221A807A18786818
:1023C00002230021FFF764F816E014217B18312264
:1023D0001A807A18786802230021FFF759F80BE079
:1023E00010217B1832221A807A1878680223002183
:1023F000FFF74EF800E0C0460C217B1842221A80FD
:102400007A18786802230021FFF742F8052000F0CF
:1024100009FD2C257C197B681800FFF799F803004B
:1024200023807B191B8810221340F2D108217B18CE
:1024300008221A807A18786802230021FFF728F80A
:102440002F257C192B23FA18786802230021FFF727
:102450000FF9030023707B191B78002B02D07B1926
:102460001B7800E000231800BD460CB0B0BDC0468C
:102470000080FFFFB0B588B000AF786018217B18EE
:102480002B4A1A807A18786802230021FFF700F897
:1024900014217B18264A1A807A18786802230021B2
:1024A000FEF7F6FF10217B1813221A807A1878683D
:1024B00002230021FEF7ECFF1E257C197B68180023
:1024C000FFF746F8030023807B191B881022134076
:1024D000F2D01D257C197B68002252211800FFF7DD
:1024E000EEF8030023707B191B78002B03D07B19B7
:1024F0001B789BB218E0012000F094FC1A257C198F
:102500000C4A7B6811001800FEF78EFF0300238041
:102510000C217B1842221A807A1878680223002145
:10252000FEF7B6FF7B191B881800BD4608B0B0BD8A
:102530000080FFFF4647000080B584B000AF7860A0
:10254000074B196D064B7A680A431A65044B1B6DDD
:102550007A681340FB60FB68C046BD4604B080BD8E
:102560000000404880B586B004AF39601100FB1D03
:10257000021C1A70BB1D0A1C1A70FB1D1B7899B235
:10258000BB1D1B789BB20848012252420292019364
:102590003B68009301230A00AA2101F095F803008B
:1025A0001800BD4602B080BDC400002090B589B0BF
:1025B00000AF3023FB18BB6000F0AFFB00F066F803
:1025C00000F081F800F0DCF800F09AF82D4A2E4B6C
:1025D00011001800FEF784FFFB1D01221900552091
:1025E000FFF7C0FFBB1D012219005620FFF7BAFFFD
:1025F0001E23FC18244B1800FFF73CFF0300238028
:102600001C23FC18204B1800FFF70EF80300238052
:102610001A23FC181C4B1800FEF788FF03002380C8
:102620001823FC18184B1800FEF7ECFF030023805A
:102630001623FC18144B1800FEF79CFF03002380A0
:102640001423FC18104B1800FEF7A6FF030023808C
:102650001223FC180C4B1800FEF7B0FF0300238078
:102660001023FC18084B1800FEF7BAFF0300238064
:102670000E23FC18044B1800FEF7E8FF030023802C
:10268000C046A9E7C4000020C000002080B582B089
:1026900000AF3B00180008231A00002101F0E1FE02
:1026A0003B0002221A603B0000225A603B001021CE
:1026B000180001F079FD031E01D000F06CF8C0464F
:1026C000BD4602B080BD80B586B000AF3B001800AB
:1026D00018231A00002101F0C4FE3B0002221A60F8
:1026E0003B00802252015A613B00180001F07EFE3F
:1026F000031E01D000F04FF8C046BD4606B080BDB5
:1027000080B500AF1C4B8222D2051A601A4B1B4ABF
:102710005A60194B00229A60174B0122DA60164B5F
:1027200000221A61144B00225A61134B00229A6155
:10273000114B0022DA61104B00221A620E4B180076
:1027400000F0EEFD031E01D000F025F80A4B002139
:10275000180001F0E9FB031E01D000F01CF8064B45
:102760000021180001F02CFC031E01D000F013F82A
:10277000C046BD4680BDC046C40000205B3D300061
:1027800080B500AF0420FFF7D7FE0820FFF7D4FE86
:10279000C046BD4680BD80B500AF72B6C046C046DB
:1027A000FDE7000080B582B000AF7860084B1A6A80
:1027B0007B68D943064B0A401A62054B5A6A7B680C
:1027C000D943034B0A405A62C046BD4602B080BDA1
:1027D0000000504880B582B000AF7860084B9A6A1C
:1027E0007B68D943064B0A409A62054BDA6A7B68DC
:1027F000D943034B0A40DA62C046BD4602B080BDF1
:102800000000504880B584B000AF7860074B196D68
:10281000064B7A680A431A65044B1B6D7A681340AD
:10282000FB60FB68C046BD4604B080BD0000404868
:1028300080B584B000AF7860074B596D064B7A685D
:102840000A435A65044B5B6D7A681340FB60FB6872
:10285000C046BD4604B080BD0000404880B584B08D
:1028600000AF7860074B996D064B7A680A439A650A
:10287000044B9B6D7A681340FB60FB68C046BD4605
:1028800004B080BD0000404880B500AF80235B00ED
:102890001800FFF7CDFFC046BD4680BD90B589B09A
:1028A00000AF78600C243B19180014231A00002193
:1028B00001F0D7FD7B681A688223DB059A423CD180
:1028C0000420FFF79FFF0820FFF79CFF3B19012220
:1028D0001A603B1912225A603B1900229A603B1978
:1028E0000022DA603B1900221A613A199023DB05B5
:1028F0001100180000F06EFB21007B1880221A6086
:102900007B1812225A607B1800229A607B180022E2
:10291000DA607B1800221A617B180A4A190010003D
:1029200000F058FB0120FFF73DFF8020FFF752FF2A
:1029300080239B031800FFF791FFC046BD4609B0F6
:1029400090BDC0460000104880B500AFC046FDE70E
:1029500080B500AFC046FDE780B500AFC046BD46BC
:1029600080BD80B500AFC046BD4680BD80B500AF1C
:1029700000F032FAC046BD4680BD000090B583B07D
:1029800000AF02003960FB1D1A70FB1D1B787F2B06
:1029900028D82F4AFB1D1B785BB29B08C0339B00D5
:1029A0009B58FA1D1278110003220A40D200FF2121
:1029B00091400A00D2431A4011003B689B01FF225C
:1029C0001A40FB1D1B78180003230340DB009A40CC
:1029D0001F48FB1D1B785BB29B080A43C0339B005A
:1029E0001A5031E01B4AFB1D1B7819000F230B40C6
:1029F000083B9B0806339B00D31804331B68FA1D61
:102A00001278110003220A40D200FF2191400A00EF
:102A1000D2431A4011003B689B01FF221A40FB1D64
:102A20001B78180003230340DB009A400948FB1D74
:102A30001B781C000F232340083B9B080A430633E6
:102A40009B00C31804331A60C046BD4603B090BD56
:102A500000E100E000ED00E080B500AFBFF34F8F74
:102A6000C046044B044ADA60BFF34F8FC046C046ED
:102A7000FDE7C04600ED00E00400FA0590B587B020
:102A800000AF644A9423D358002B0ED1624B1B69CC
:102A9000002B03D1604B9B6B002B06D05F4B0122B8
:102AA0009A6000F001F9FFF7D7FF5D4B5D4A9A602D
:102AB0005B4B9A68594B1A61574B5A68564B202109
:102AC0000A435A60544B5A68534B40210A435A6098
:102AD000514B5A68504B80210A435A604E4B5A68FA
:102AE0004D4B51490A405A60C0464B4B5B6904222A
:102AF0001340042BF9D1484BDB69302293431A0071
:102B0000454B20210A43DA61434BDA69424B47497E
:102B10000A40DA61404BDA693F4B802149000A43A1
:102B2000DA61434B1B68434A934255D01F233B61F4
:102B30000823FB600A23BB6003237B60354BDB6803
:102B40001E2293431900FB685A00324B0A43DA6095
:102B5000304BDA682F4B01210A43DA602D4BDB68DA
:102B6000354A134019003B691A062A4B0A43DA60BA
:102B7000284BDA68274B802109040A43DA60264A89
:102B80009423D3582D4A1A40BB689901F0239B0027
:102B90000B402149134394228B501F4A9423D3584E
:102BA0001D492022134394228B501B4A9423D3584F
:102BB000234A1A407B68D902E0239B010B40164947
:102BC000134394228B50144A9423D35812498022E1
:102BD000D200134394228B501723FB1800221A7043
:102BE0000DE017243B191B785BB203211800FFF797
:102BF000C5FE21007B181A787B1801321A70172342
:102C0000FB181B781F2BECD962B6C046C046BD46E8
:102C100007B090BD0000404800005048040000206C
:102C200000ED00E000000410FFFEFFFFFFFBFFFFD0
:102C3000F81E0010CCECBCFCFFFFFFC03FFCFFFF08
:102C4000FFC7FFFF80B582B000AF134B9B685B08E6
:102C5000DAB2FB1D01210A401A700F4B9B681B0A58
:102C6000DAB2BB1D07210A401A70FB1D1B78002B2E
:102C700007D0BB1D1B78013B084ADA40084B1A609D
:102C800005E0BB1D1B78074ADA40054B1A60C046B9
:102C9000BD4602B080BDC046000040480048E80183
:102CA0001C0100200090D00380B500AFC046BD4697
:102CB00080BD000010488546FFF7E0FE002103E0DC
:102CC0000E4B5B58435004310D480E4B42189A424C
:102CD000F6D30D4A02E00023136004320B4B9A42F4
:102CE000F9D30B4A02E0002313600432094B9A42E5
:102CF000F9D3FFF75BFCFEE700000120BC440410A1
:102D00001C01002028010020C00000201C01002020
:102D1000C0000020C0000020FEE780B582B000AFF8
:102D2000FB1D00221A70032000F00EF8031E03D0D2
:102D3000FB1D01221A7001E0FFF7A6FDFB1D1B78A9
:102D40001800BD4602B080BD90B585B000AF786078
:102D50000F23FB1800221A701D4B1B78002B2CD060
:102D600001F0CEFA04001A4B1B781900FA239800E0
:102D7000FDF7A6F9030019002000FDF7A1F90300F3
:102D8000180000F01AF9031E12D17B68032B0AD831
:102D9000796801235B420022180000F0F9F80D4B1E
:102DA0007A681A600DE00F23FB1801221A7008E000
:102DB0000F23FB1801221A7003E00F23FB180122D6
:102DC0001A700F23FB181B781800BD4605B090BD84
:102DD000240100202001002080B500AF054B1B78A6
:102DE0001A00054B1B68D218034B1A60C046BD463B
:102DF00080BDC046240100201801002080B500AF2E
:102E0000024B1B681800BD4680BDC046180100205B
:102E100080B500AF024B1B681800BD4680BDC046A0
:102E20002001002080B584B000AF7860FFF7E6FF96
:102E30000300BB607B68FB60FB68013305D00A4B75
:102E40001B781A00FB689B18FB60C046FFF7D6FF93
:102E50000200BB68D31AFA689A42F7D8C046C04647
:102E6000BD4604B080BDC0462401002090B583B0AB
:102E700000AF02003960FB1D1A70FB1D1B787F2B11
:102E800028D82F4AFB1D1B785BB29B08C0339B00E0
:102E90009B58FA1D1278110003220A40D200FF212C
:102EA00091400A00D2431A4011003B689B01FF2267
:102EB0001A40FB1D1B78180003230340DB009A40D7
:102EC0001F48FB1D1B785BB29B080A43C0339B0065
:102ED0001A5031E01B4AFB1D1B7819000F230B40D1
:102EE000083B9B0806339B00D31804331B68FA1D6C
:102EF0001278110003220A40D200FF2191400A00FB
:102F0000D2431A4011003B689B01FF221A40FB1D6F
:102F10001B78180003230340DB009A400948FB1D7F
:102F20001B781C000F232340083B9B080A430633F1
:102F30009B00C31804331A60C046BD4603B090BD61
:102F400000E100E000ED00E080B582B000AF786005
:102F50007B685A1E80235B049A4201D3012310E050
:102F60000A4B7A68013A5A6001235B420321180038
:102F7000FFF77CFF054B00229A60044B07221A6082
:102F800000231800BD4602B080BDC04610E000E03E
:102F900080B584B000AFB9607A600F217B18021C45
:102FA0001A70BA687B181B785BB211001800FFF723
:102FB0005DFFC046BD4604B080BD80B582B000AFA5
:102FC00078607B681800FFF7BFFF03001800BD465C
:102FD00002B080BD80B586B000AF78603960002354
:102FE0007B6190E13B681B6801217A6991400A008E
:102FF0001340FB60FB68002B00D181E13B685B68FC
:1030000003221340012B05D03B685B680322134069
:10301000022B30D17B689B683B617B695B0003229C
:103020009A401300DA433B6913403B613B68DA681E
:103030007B695B009A4013003A6913433B617B68EC
:103040003A699A607B685B683B6101227B699A40C0
:103050001300DA433B6913403B613B685B681B0923
:1030600001221A407B699A4013003A6913433B617D
:103070007B683A695A603B685B6803221340032B04
:1030800017D07B68DB683B617B695B0003229A4059
:103090001300DA433B6913403B613B689A687B69E4
:1030A0005B009A4013003A6913433B617B683A69BD
:1030B000DA603B685B6803221340022B23D17B69F3
:1030C000DA087B6808329200D3583B617B6907229B
:1030D00013409B000F229A401300DA433B691340D0
:1030E0003B613B681A697B6907210B409B009A4052
:1030F00013003A6913433B617B69DA087B68083245
:1031000092003969D1507B681B683B617B695B0029
:1031100003229A401300DA433B6913403B613B684A
:103120005B6803221A407B695B009A4013003A698E
:1031300013433B617B683A691A603B685A68C02355
:103140009B02134000D1DBE03B685A688023DB021E
:10315000134030D08023DB05DB683B617A68902325
:10316000DB059A4211D101227B699A401300DB43AF
:103170001A003B6913403B6101227B699A401300AE
:103180001A003B6913433B6111E001227B699A40BD
:1031900013001B04DB431A003B6913403B6101220F
:1031A0007B699A4013001B043A6913433B618023F7
:1031B000DB053A69DA603B685A6880235B03134099
:1031C00030D08023DB051B693B617A689023DB05E7
:1031D0009A4211D101227B699A401300DB431A0005
:1031E0003B6913403B6101227B699A4013001A003E
:1031F0003B6913433B6111E001227B699A40130054
:103200001B04DB431A003B6913403B6101227B69CD
:103210009A4013001B043A6913433B618023DB058A
:103220003A691A613B685A688023DB03134030D047
:103230008023DB055B693B617A689023DB059A425A
:1032400011D101227B699A401300DB431A003B69CC
:1032500013403B6101227B699A4013001A003B69CD
:1032600013433B6111E001227B699A4013001B0468
:10327000DB431A003B6913403B6101227B699A40A2
:1032800013001B043A6913433B618023DB053A6951
:103290005A613B685A6880235B02134030D0802318
:1032A000DB059B693B617A689023DB059A4211D16B
:1032B00001227B699A401300DB431A003B691340EB
:1032C0003B6101227B699A4013001A003B6913435A
:1032D0003B6111E001227B699A4013001B04DB4330
:1032E0001A003B6913403B6101227B699A4013003D
:1032F0001B043A6913433B618023DB053A699A61F9
:103300007B6901337B613B681A687B69DA40131E75
:1033100000D067E6C046C046BD4606B080BD00008E
:1033200080B582B000AF78607B68002B01D10123AB
:103330008FE07B6841229B5CDBB2002B07D17B686E
:103340004022002199547B681800FFF7A7FA7B6898
:103350004122242199547B681B681A687B681B688A
:1033600001218A431A607B685A687B681B683B4965
:103370000A401A617B681B689A687B681B68384939
:103380000A409A607B68DB68012B08D17B689A68E9
:103390007B681B68802109020A439A6007E07B680A
:1033A0009A687B681B68842109020A439A607B68DB
:1033B000DB68022B09D17B681B685A687B681B6835
:1033C000802109010A435A6007E07B681B685A683C
:1033D0007B681B6823490A405A607B681B685A68EF
:1033E0007B681B6820490A435A607B681B68DA685F
:1033F0007B681B681A490A40DA607B681A697B6837
:103400005B691A4311007B689B691A027B681B6821
:103410000A43DA607B68D9697B681A6A7B681B6833
:103420000A431A607B681B681A687B681B68012165
:103430000A431A607B6800225A647B68412220217B
:1034400099547B6800221A637B68422200219954B8
:1034500000231800BD4602B080BDC046FFFFFFF04C
:10346000FF7FFFFFFFF7FFFF0080000290B589B0EC
:1034700002AFF8600C00100019000A23FB18221C90
:103480001A800823FB18021C1A80BB1D0A1C1A8014
:10349000FB6841229B5CDBB2202B00D00CE1BB6AB5
:1034A000002B04D02C23FB181B88002B05D1FB68B4
:1034B000802292005A640123FFE0FB6840229B5C5B
:1034C000012B01D10223F8E0FB684022012199542D
:1034D000FFF794FC03007B6180231902F8687B6985
:1034E00000931923012200F00BFB031E01D00123DE
:1034F000E3E0FB68412221219954FB6842224021EC
:103500009954FB6800225A64FB68BA6A5A62FB68E5
:103510002C22BA1812885A85FB6800225A63BB1DF8
:103520001C880823FB181A880A23FB181988F868D6
:103530007B6901933B6B0093230000F0F9F9031EB4
:1035400005D0FB684022002199540123B5E0FB68B7
:103550005B8D9BB2FF2B11D9FB68FF221A85FB689C
:103560001B8DDAB280235C040A23FB181988F868E3
:1035700000230093230000F09DFC12E0FB685B8DAC
:103580009AB2FB681A85FB681B8DDAB280239C0413
:103590000A23FB181988F86800230093230000F021
:1035A00089FC7A69396BFB68180000F001FB031E87
:1035B00001D0012381E0FB685B6A1A78FB681B6815
:1035C0009A62FB685B6A5A1CFB685A62FB685B8DF7
:1035D0009BB2013B9AB2FB685A85FB681B8D013B8D
:1035E0009AB2FB681A85FB685B8D9BB2002B3AD0C0
:1035F000FB681B8D002B36D13A6BF8687B69009312
:1036000013000022802100F07BFA031E01D0012369
:1036100053E0FB685B8D9BB2FF2B11D9FB68FF2247
:103620001A85FB681B8DDAB280235C040A23FB1821
:103630001988F86800230093230000F03BFC12E097
:10364000FB685B8D9AB2FB681A85FB681B8DDAB24A
:1036500080239C040A23FB181988F8680023009330
:10366000230000F027FCFB685B8D9BB2002B98D1F8
:103670007A69396BFB68180000F0E0FA031E01D08C
:1036800001231AE0FB681B682022DA61FB681B68D3
:103690005A68FB681B680B490A405A60FB68412264
:1036A00020219954FB68422200219954FB68402252
:1036B00000219954002300E002231800BD4607B002
:1036C00090BDC04600E800FE90B589B002AFF8603A
:1036D0000C00100019000A23FB18221C1A80082372
:1036E000FB18021C1A80BB1D0A1C1A80FB684122B1
:1036F0009B5CDBB2202B00D010E1BB6A002B04D016
:103700002C23FB181B88002B05D1FB68802292001C
:103710005A64012303E1FB6840229B5C012B01D129
:103720000223FCE0FB68402201219954FFF766FB6D
:1037300003007B6180231902F8687B6900931923D9
:10374000012200F0DDF9031E01D00123E7E0FB6850
:10375000412222219954FB68422240219954FB685E
:1037600000225A64FB68BA6A5A62FB682C22BA18B3
:1037700012885A85FB6800225A63BB1D1C880823E7
:10378000FB181A880A23FB181988F8687B690193CB
:103790003B6B0093230000F02FF9031E05D0FB685C
:1037A0004022002199540123B9E0FB685B8D9BB254
:1037B000FF2B11D9FB68FF221A85FB681B8DDAB23B
:1037C00080235C040A23FB181988F868564B009381
:1037D000230000F06FFB12E0FB685B8D9AB2FB6880
:1037E0001A85FB681B8DDAB280239C040A23FB1820
:1037F0001988F8684C4B0093230000F05BFB3A6B90
:10380000F8687B69009313000022042100F078F926
:10381000031E01D0012382E0FB681B685A6AFB6823
:103820005B6AD2B21A70FB685B6A5A1CFB685A6208
:10383000FB681B8D013B9AB2FB681A85FB685B8DA8
:103840009BB2013B9AB2FB685A85FB685B8D9BB2C9
:10385000002B3AD0FB681B8D002B36D13A6BF868F1
:103860007B69009313000022802100F049F9031EB8
:1038700001D0012353E0FB685B8D9BB2FF2B11D974
:10388000FB68FF221A85FB681B8DDAB280235C047B
:103890000A23FB181988F86800230093230000F01E
:1038A00009FB12E0FB685B8D9AB2FB681A85FB6826
:1038B0001B8DDAB280239C040A23FB181988F86850
:1038C00000230093230000F0F5FAFB685B8D9BB2A8
:1038D000002B94D17A69396BFB68180000F0AEF9BF
:1038E000031E01D001231AE0FB681B682022DA6165
:1038F000FB681B685A68FB681B680C490A405A60E1
:10390000FB68412220219954FB68422200219954EE
:10391000FB68402200219954002300E00223180094
:10392000BD4607B090BDC0460024008000E800FE00
:10393000B0B586B002AFF8600C00100019000A257F
:103940007B19221C1A800823FB18021C1A80BB1D3D
:103950000A1C1A80BB1D1B88DAB280235C047B1909
:103960001988F868234B0093230000F0A3FA7A6AC1
:10397000396AFB68180000F01BF9031E01D001230F
:1039800033E0BB1D1B88012B07D10823FB181B88C4
:10399000DAB2FB681B689A6219E00823FB181B88DF
:1039A0001B0A9BB2DAB2FB681B689A627A6A396AB0
:1039B000FB68180000F0FCF8031E01D0012314E09E
:1039C0000823FB181B88DAB2FB681B689A623A6A04
:1039D000F8687B6A009313000022802100F090F8C1
:1039E000031E01D0012300E000231800BD4604B0EF
:1039F000B0BDC04600200080B0B586B002AFF86010
:103A00000C00100019000A257B19221C1A800823BB
:103A1000FB18021C1A80BB1D0A1C1A80BB1D1B88C8
:103A2000DAB27B191988F868234B0093002300F061
:103A300041FA7A6A396AFB68180000F0B9F8031E87
:103A400001D0012333E0BB1D1B88012B07D10823C4
:103A5000FB181B88DAB2FB681B689A6219E008231E
:103A6000FB181B881B0A9BB2DAB2FB681B689A62C0
:103A70007A6A396AFB68180000F09AF8031E01D0D0
:103A8000012314E00823FB181B88DAB2FB681B68CB
:103A90009A623A6AF8687B6A009313000022402118
:103AA00000F02EF8031E01D0012300E000231800CF
:103AB000BD4604B0B0BDC0460020008080B582B0D5
:103AC00000AF78607B681B689B6902221340022B61
:103AD00003D17B681B6800229A627B681B689B6924
:103AE00001221340012B07D07B681B689A697B6811
:103AF0001B6801210A439A61C046BD4602B080BDE1
:103B000080B584B000AFF860B9603B60FB1D1A70EF
:103B10003AE0BA693968FB68180000F0D3F8031E70
:103B200001D0012340E03B6801332DD0FFF766F957
:103B30000200BB69D31A3A689A4202D33B68002B51
:103B400022D1FB681B689B69BA681340BA68D31A14
:103B50005A425341DBB21A00FB1D1B789A4213D123
:103B6000FB685B6C20221A43FB685A64FB684122A5
:103B700020219954FB68422200219954FB6840227D
:103B80000021995401230FE0FB681B689B69BA6808
:103B90001340BA68D31A5A425341DBB21A00FB1DD4
:103BA0001B789A42B5D000231800BD4604B080BDF2
:103BB00080B584B000AFF860B9607A6032E07A68AE
:103BC000B968FB68180000F07DF8031E01D00123DE
:103BD00030E0BB68013325D0FFF710F902007B68A5
:103BE000D31ABA689A4202D3BB68002B1AD1FB6879
:103BF0001B689B6902221340022B13D0FB685B6C8D
:103C000020221A43FB685A64FB6841222021995400
:103C1000FB68422200219954FB68402200219954FC
:103C2000012307E0FB681B689B6902221340022BFB
:103C3000C5D100231800BD4604B080BD80B584B056
:103C400000AFF860B9607A602FE07A68B968FB6805
:103C5000180000F037F8031E01D001232DE0FFF714
:103C6000CDF802007B68D31ABA689A4202D3BB68C7
:103C7000002B1AD1FB681B689B6920221340202B64
:103C800013D0FB685B6C20221A43FB685A64FB6804
:103C9000412220219954FB68422200219954FB685B
:103CA000402200219954012307E0FB681B689B69AF
:103CB00020221340202BC8D100231800BD4604B099
:103CC00080BD000080B58AB000AFF860B9607A604E
:103CD0002723FB1800221A70FB681B689B69BB61D5
:103CE00000233B627B68FB61BB691022134000D15B
:103CF00079E0FB681B681022DA6157E02722BB18C5
:103D0000BA1812781A70BB6801334FD0FFF776F8F3
:103D10000200FB69D31ABA689A4202D3BB68002B2F
:103D200044D1FB681B685A688023DB0113407B6128
:103D300013203B18FA684221525C1A70FB681B681A
:103D40009A6980231B021A4080231B029A4226D1C3
:103D50007A698023DB019A4221D03B181B78202B03
:103D60001DD0FB681B685A68FB681B688021C9016D
:103D70000A435A60FFF742F80300FB610FE0FFF7C8
:103D80003DF80200FB69D31A192B08D93B6A20229F
:103D900013433B622723FB1801221A7006E0FB68DD
:103DA0001B689B6920221340202BE8D1FB681B680D
:103DB0009B6920221340202B04D02723FB181B785B
:103DC000002B9BD02723FB181B78002B03D1FB680B
:103DD0001B682022DA613B6A042213433B622723DB
:103DE000FB1801221A70FB681B689B69BB61BA69EA
:103DF00080235B0013400CD03B6A012213433B62DB
:103E0000FB681B6880225200DA612723FB1801221D
:103E10001A70BA698023DB0013400CD03B6A082279
:103E200013433B62FB681B688022D200DA612723C0
:103E3000FB1801221A70BA6980239B0013400CD032
:103E40003B6A022213433B62FB681B68802292009C
:103E5000DA612723FB1801221A702723FB181B782D
:103E6000002B1DD0FB681800FFF728FEFB681B68BD
:103E70005A68FB681B680E490A405A60FB685A6C16
:103E80003B6A1A43FB685A64FB684122202199541B
:103E9000FB68422200219954FB684022002199547A
:103EA0002723FB181B781800BD460AB080BDC0460A
:103EB00000E800FE90B587B000AFF8600800110080
:103EC0007B600A243B19021C1A8009203B180A1C3B
:103ED0001A703B191B889B059A0D3B181B78190417
:103EE000FF231B040B401A437B681A43BB6A13432E
:103EF0005B005B087B61FB681B685B68BA6A510DFD
:103F00008022D2000A4007490A43D2431A401100D6
:103F1000FB681B687A690A435A60C046BD4607B011
:103F200090BDC046FF63FF0380B582B000AF7860EC
:103F300039607B6841229B5CDBB2202B38D17B68E7
:103F400040229B5C012B01D1022332E07B6840229E
:103F5000012199547B684122242199547B681B6874
:103F60001A687B681B6801218A431A607B681B689A
:103F70001A687B681B6811490A401A607B681B68D5
:103F800019687B681B683A680A431A607B681B687B
:103F90001A687B681B6801210A431A607B6841220A
:103FA000202199547B68402200219954002300E08D
:103FB00002231800BD4602B080BDC046FFEFFFFFE0
:103FC00080B584B000AF786039607B6841229B5C2B
:103FD000DBB2202B39D17B6840229B5C012B01D1C5
:103FE000022333E07B684022012199547B684122FF
:103FF000242199547B681B681A687B681B6801211F
:104000008A431A607B681B681B68FB60FB68114A67
:104010001340FB603B681B02FA681343FB607B683C
:104020001B68FA681A607B681B681A687B681B68E3
:1040300001210A431A607B684122202199547B6840
:10404000402200219954002300E002231800BD46BD
:1040500004B080BDFFF0FFFF80B500AF074B1A68CA
:1040600080239B021A4080239B029A4201D10123A4
:1040700000E000231800BD4680BDC0460000404857
:1040800080B500AF074B9A68064B04218A439A60BB
:10409000044B9A68034B02218A439A60C046BD468E
:1040A00080BDC0460000404880B500AF074B1A688D
:1040B0008023DB001A408023DB009A4201D10123D8
:1040C00000E000231800BD4680BDC0460000404807
:1040D00080B582B000AFC0460F4B1A6880239B02A8
:1040E0001340F9D00C4B9A680B4B02210A439A609B
:1040F00000237B6003E0C0467B6801337B607B6804
:10410000052BF8DD044B9A68034B04210A439A609F
:10411000C046BD4602B080BD0000404880B500AF3B
:10412000044B1A68034B802189010A431A60C04678
:10413000BD4680BD0000404880B500AF044B1A6802
:10414000034B04490A401A60C046BD4680BDC046C4
:1041500000004048FFDFFFFF80B500AF074B1A6843
:104160008023DB011A408023DB019A4201D1012325
:1041700000E000231800BD4680BDC0460000404856
:1041800080B582B000AF7860064B9B68E022934315
:104190001900044B7A680A439A60C046BD4602B0D3
:1041A00080BDC0460000404880B584B000AF786054
:1041B00039607B68002B01D1012398E04E4B5B688E
:1041C0003022934319004C4B3A680A435A607B688B
:1041D0001B68022B0ED1FFF753FFFFF765FF031E8D
:1041E00001D1012383E0FFF7A7FF7B685B6818001C
:1041F000FFF7C6FF7B681B68002B24D1FFF754FF35
:10420000031E01D1012372E0FFF726FF031E01D137
:1042100001236CE0FFF782FFFEF7F0FD0300FB6077
:1042200008E0FEF7EBFD0200FB68D31A022B01D970
:1042300003235CE0FFF790FF031EF2D07B685B680E
:104240001800FFF79DFF7B681B68012B17D1FFF754
:104250003FFFFFF729FF031E01D0012347E0FFF7CF
:10426000FBFE031E01D1012341E0244B9B68E022A9
:10427000934319007B685A68204B0A439A601E4B8F
:104280005B68302213403A689A421DD01A4B5B6833
:10429000302293431900184B3A680A435A60FEF7DC
:1042A000ADFD0300FB6008E0FEF7A8FD0200FB681F
:1042B000D31A022B01D9032319E00F4B5B6830227C
:1042C00013403A689A42EFD10023BB6003E0C04636
:1042D000BB680133BB60BB68052BF8DDFEF7B2FCA1
:1042E000FEF796FD03001800FEF72EFD03001800F0
:1042F000BD4604B080BDC0460010004000004048EC
:1043000080B500AF024B1B681800BD4680BDC0469B
:104310001C01002080B582B000AF7860064B9B681E
:10432000064A13401900044B7A680A439A60C04653
:10433000BD4602B080BDC04600004048FF7FFEFF82
:1043400080B582B000AF7860064B1B6E04229343A9
:104350001900044B7A680A431A66C046BD4602B08B
:1043600080BDC0460000404880B582B000AF786094
:10437000064B9B68064A13401900044B7A680A43AF
:104380009A60C046BD4602B080BDC04600004048AD
:10439000FFEFFFFF80B582B000AF7860064B9B68EF
:1043A000064A13401900044B7A680A439A60C046D3
:1043B000BD4602B080BDC04600004048FFDFFFFFA1
:1043C00080B582B000AF7860064B9B68064A134008
:1043D0001900044B7A680A439A60C046BD4602B091
:1043E00080BDC04600004048FFFF3FFF80B582B05F
:1043F00000AF78607B681B680122134004D07B68A3
:104400001B691800FFF79CFF7B681B6802221340A2
:1044100004D07B685B691800FFF7A6FF7B681B6808
:104420000822134004D07B685B681800FFF7C8FFC0
:104430007B681B681022134004D07B68DB6818007F
:10444000FFF7A8FF7B689B682022134004D07B689D
:104450009B681800FFF75EFF00231800BD4602B0FE
:1044600080BD03008218934200D170471970013358
:04447000F9E7000068
:04447400F8B5C04691
:04447800F8B5C0468D
:10447C004804041006030410E4020410D0020410D3
:10448C00E4020410EA030410E4020410D002041045
:10449C000603041006030410EA030410D0020410EF
:1044AC00C8020410C8020410C80204100C04041042
:0C44BC000024F4000400000001000000D7
:0400000510042CB502
:00000001FF
