:020000041004E6
:10000000000001207D1304101110041019100410B9
:1000100000000000000000000000000000000000E0
:10002000000000000000000000000000211004108B
:1000300000000000000000002B1004103510041018
:10004000E1130410E1130410E1130410E113041090
:10005000000000000000000000000000E113041098
:10006000E1130410E1130410E1130410E113041070
:10007000E1130410E113041000000000E113041068
:10008000E1130410E1130410E11304100000000058
:10009000E11304100000000000000000E113041050
:1000A000E1130410E1130410E1130410E113041030
:1000B000E113041000000000000000000000000038
:1000C000002243088B4274D303098B425FD3030A97
:1000D0008B4244D3030B8B4228D3030C8B420DD3AA
:1000E000FF22090212BA030C8B4202D31212090238
:1000F00065D0030B8B4219D300E0090AC30B8B4276
:1001000001D3CB03C01A5241830B8B4201D38B0323
:10011000C01A5241430B8B4201D34B03C01A5241C8
:10012000030B8B4201D30B03C01A5241C30A8B420B
:1001300001D3CB02C01A5241830A8B4201D38B02F6
:10014000C01A5241430A8B4201D34B02C01A52419A
:10015000030A8B4201D30B02C01A5241CDD2C3090C
:100160008B4201D3CB01C01A524183098B4201D388
:100170008B01C01A524143098B4201D34B01C01A73
:10018000524103098B4201D30B01C01A5241C308EB
:100190008B4201D3CB00C01A524183088B4201D35A
:1001A0008B00C01A524143088B4201D34B00C01A46
:1001B0005241411A00D20146524110467047FFE7B2
:1001C00001B5002000F0F0F802BDC0460029F7D0CC
:1001D00076E7704703460B437FD4002243088B42E7
:1001E00074D303098B425FD3030A8B4244D3030BBE
:1001F0008B4228D3030C8B420DD3FF22090212BA83
:10020000030C8B4202D31212090265D0030B8B42FE
:1002100019D300E0090AC30B8B4201D3CB03C01AE8
:100220005241830B8B4201D38B03C01A5241430BC3
:100230008B4201D34B03C01A5241030B8B4201D3B3
:100240000B03C01A5241C30A8B4201D3CB02C01A1E
:100250005241830A8B4201D38B02C01A5241430A96
:100260008B4201D34B02C01A5241030A8B4201D385
:100270000B02C01A5241CDD2C3098B4201D3CB012C
:10028000C01A524183098B4201D38B01C01A5241DB
:1002900043098B4201D34B01C01A524103098B42DF
:1002A00001D30B01C01A5241C3088B4201D3CB00CA
:1002B000C01A524183088B4201D38B00C01A5241AD
:1002C00043088B4201D34B00C01A5241411A00D25D
:1002D00001465241104670475DE0CA0F00D04942C6
:1002E000031000D34042534000229C4603098B4236
:1002F0002DD3030A8B4212D3FC22890112BA030ABE
:100300008B420CD3890192118B4208D3890192113F
:100310008B4204D389013AD0921100E08909C309C4
:100320008B4201D3CB01C01A524183098B4201D3C6
:100330008B01C01A524143098B4201D34B01C01AB1
:10034000524103098B4201D30B01C01A5241C30829
:100350008B4201D3CB00C01A524183088B4201D398
:100360008B00C01A5241D9D243088B4201D34B00B3
:10037000C01A5241411A00D20146634652415B10F5
:10038000104601D34042002B00D5494270476346D6
:100390005B1000D3404201B5002000F005F802BD1B
:1003A0000029F8D016E770477047C04680B588B07E
:1003B00004AF78600A00BB1C1A807B681868BB1CFD
:1003C0001A8896239B000293022301930C23FB18A7
:1003D00000930123AA2101F0DBFC031E05D00E23AC
:1003E000FB18012252421A800DE00C217B185B7829
:1003F0001BB21B021AB27B181B781BB213431AB232
:100400000E23FB181A800E23FB181B881800BD460C
:1004100004B080BDB0B588B004AFF86008007A6061
:1004200019000B243B19021C1A700A257B190A1C9F
:100430001A70FB6818683B191B7899B27B191B78F6
:100440009BB296229200029201937B680093012353
:100450000A00AA2101F06EFB03001800BD4604B09B
:10046000B0BD80B582B000AF786039607B683A6813
:100470001A60C046BD4602B080BD000080B582B0A3
:1004800000AF7860054A7B6811001800FFF78EFF07
:1004900003001800BD4602B080BDC0460405000040
:1004A00080B582B000AF7860054A7B681100180003
:1004B000FFF77CFF03001800BD4602B080BDC046B8
:1004C0000607000080B582B000AF7860054A7B68FF
:1004D00011001800FFF76AFF03001800BD4602B0C4
:1004E00080BDC0460809000080B582B000AF7860CA
:1004F000054A7B6811001800FFF758FF0300180039
:10050000BD4602B080BDC0460B0A000080B582B077
:1005100000AF7860054A7B6811001800FFF746FFBE
:1005200003001800BD4602B080BDC0460C0D00009F
:1005300080B582B000AF7860054A7B681100180072
:10054000FFF734FF03001800BD4602B080BDC0466F
:100550000F0E000080B582B000AF7860054A7B685E
:1005600011001800FFF722FF03001800BD4602B07B
:1005700080BDC0461011000080B582B000AF786029
:10058000054A7B6811001800FFF710FF03001800F0
:10059000BD4602B080BDC0461C1D000080B582B0C3
:1005A00000AF7860054A7B6811001800FFF7FEFE77
:1005B00003001800BD4602B080BDC04628290000D7
:1005C000B0B584B000AF786008001100FB1C021CBD
:1005D0001A70BB1C0A1C1A700C217B1800221A709E
:1005E0000F257C197A18786801236121FFF712FF23
:1005F000030023707B191B78002B02D07B191B781A
:1006000017E00F257C19FA1C786801233E21FFF7BB
:1006100001FF030023707B191B78002B02D07B198C
:100620001B7806E0BA1C786801233F21FFF7F2FE31
:1006300003001800BD4604B0B0BD0000B0B588B0DE
:1006400000AF786018217B182D4A1A807A187868D4
:1006500002230021FFF7DEFE14217B18284A1A80AE
:100660007A18786802230021FFF7D4FE10217B1846
:1006700013221A807A18786802230021FFF7CAFE35
:10068000204B180000F032FF1F257C197B680022E8
:1006900052211800FFF794FF030023707B191B7889
:1006A000002B03D07B191B789BB225E0642000F05F
:1006B0001DFF1C257C19144A7B6811001800FFF7E8
:1006C00075FE030023800C217B1842221A807A18C1
:1006D000786802230021FFF79DFE0A2000F006FF44
:1006E00008217B1820221A807A18786802230021BA
:1006F000FFF790FE7B191B881800BD4608B0B0BDFF
:100700000080FFFF4C0400004647000080B584B025
:1007100000AF7860074B196D064B7A680A431A657B
:10072000044B1B6D7A681340FB60FB68C046BD46F6
:1007300004B080BD0000404880B586B004AF396089
:100740001100FB1D021C1A70BB1D0A1C1A70FB1D38
:100750001B7899B2BB1D1B789BB2084801225242FC
:10076000029201933B68009301230A00AA2101F041
:10077000E1F903001800BD4602B080BDC0000020B2
:1007800080B586B004AF39601100FB1D021C1A70E1
:10079000BB1D0A1C1A70FB1D1B7899B2BB1D1B7870
:1007A0009BB2084801225242029201933B68009397
:1007B00001230A00AA2101F0EBFA03001800BD464C
:1007C00002B080BDC000002090B589B000AF3023DA
:1007D000FB18BB6000F005FE00F0BCFA00F0D7FA91
:1007E00000F032FB00F0F0FA2E4A2F4B11001800F7
:1007F000FFF737FE2D4A0823FB189C461100962070
:1008000000F056F8FB1D012219005520FFF7B8FF34
:100810001E23FC18244B1800FFF710FF0300238051
:100820001C23FC18204B1800FFF7A6FE03002380B2
:100830001A23FC181C4B1800FFF720FE030023802E
:100840001823FC18184B1800FFF784FE03002380C0
:100850001623FC18144B1800FFF734FE0300238006
:100860001423FC18104B1800FFF73EFE03002380F2
:100870001223FC180C4B1800FFF748FE03002380DE
:100880001023FC18084B1800FFF752FE03002380CA
:100890000E23FC18044B1800FFF780FE0300238092
:1008A000C046AFE7C000002014010020AC0D0000DE
:1008B000F0B58FB000AF0200BB1D1A803B1D0A1CB3
:1008C0001A8063463B6030217B18154A1A800C0061
:1008D0007B18022219000020FFF72EFF3B1902228D
:1008E00019000020FFF728FF2C217B1813221A8003
:1008F0007B18022219000020FFF71EFF052000F0E0
:10090000F5FD36257C19074B1800FFF7C9FD0300DC
:1009100023807B191B8810221340F2D004E0C046CC
:100920000080FFFF140100202B217B1800221A7089
:100930002A257B1952221A700C007B1801221900FB
:100940006120FFF7F9FE7B19012219003E20FFF715
:10095000F3FE3B19012219003F20FFF7EDFE642052
:1009600000F0C4FD2923FB18012219006020FFF7C5
:1009700007FF642000F0BAFD27217B18012219002F
:100980004620FFF7FDFE642000F0B0FD28203B1854
:10099000012219004720FFF7F3FE642000F0A6FDB6
:1009A0001E243B19012219005520FFF7E9FE64209F
:1009B00000F09CFD25257B19012219004020FFF73E
:1009C000DFFE642000F092FD2626BB1901221900EB
:1009D0004120FFF7D5FE642000F088FD2323FB189B
:1009E000012219004220FFF7CBFE642000F07EFDBB
:1009F00024243B19012219004320FFF7C1FE642083
:100A000000F074FD21257B19012219004420FFF715
:100A1000B7FE642000F06AFD2226BB1901221900EE
:100A20004520FFF7ADFE642000F060FD1D22BB18DD
:100A3000012219004820FFF7A3FE642000F056FDB4
:100A40001C243B19012219004920FFF799FE64205C
:100A500000F04CFD1F257B19012219004A20FFF7E9
:100A60008FFE642000F042FD2026BB1901221900F0
:100A70004B20FFF785FEBB1D1B88DAB21A243B19F9
:100A80001A70BB1D1B881B0A9BB2DAB21B257B198F
:100A90001A703B19012219004620FFF74DFE7B1901
:100AA000012219004720FFF747FE1126BB190F222C
:100AB0001A70BB19012219005520FFF73DFE1821BD
:100AC0007B18A7221A701923FB1800221A707B18B2
:100AD000012219004020FFF72FFE1923FB180122E5
:100AE00019004120FFF728FE16203B1864221A70D7
:100AF0001722BB1800221A703B180122190042204D
:100B0000FFF71AFE1722BB18012219004320FFF736
:100B100013FE14221100BB18FA221A701522BB18FA
:100B200000221A700A00BB18012219004420FFF7A6
:100B300003FE1522BB18012219004520FFF7FCFD1A
:100B40003B1D1B88DAB212203B181A703B1D1B8814
:100B50001B0A9BB2DAB213217B181A703B180122D0
:100B600019004A20FFF7E8FD1322BB1801221900E3
:100B70004B20FFF7E1FDBB1D1B883A1D1288534334
:100B8000FA2291001800FFF725FB03001A00342019
:100B90003B181A803B181B88DAB210231900FB1887
:100BA0001A703B181B881B0A9BB2DAB20F23FB1882
:100BB0001A700B00FB18012219004820FFF7BCFD3A
:100BC0000F22BB18012219004920FFF7B5FD292289
:100BD000BB181A7833231800FB18D2431A70282246
:100BE000BB181B780200BA181278D31ADAB2272180
:100BF0007B181B78D31ADAB21E217B181B78D31A04
:100C0000DAB226203B181B78D31ADAB225217B18DA
:100C10001B78D31ADAB224217B181B78D31ADAB2E4
:100C20002323FB181B78D31ADAB222203B181B7837
:100C3000D31ADAB21D203B181B78D31ADAB21C2063
:100C40003B181B78D31ADAB221217B181B78D31AF0
:100C5000DAB220203B181B78D31ADAB21F217B1896
:100C60001B78D31ADAB27B191B78D318DAB23B1986
:100C70001B78D318DAB2BB191B78D318DAB2192350
:100C8000FB181B78D318DAB218217B181B78D318FD
:100C9000DAB21723FB181B78D318DAB216203B18E8
:100CA0001B78D318DAB21523FB181B78D318DAB2E5
:100CB00014217B181B78D318DAB213217B181B7808
:100CC000D318DAB212203B181B78D318DAB20F20EF
:100CD0003B181B78D318D9B21023FB181A7832208E
:100CE0003B188A181A703B181B78DB43DAB20E21C6
:100CF0007B181A707B18012219006020FFF71CFD79
:100D000036257C19124B1800FFF7CAFB030023801D
:100D10007B191B8810221340F2D00C217B18422231
:100D20001A807B18022219000020FFF705FD05201C
:100D300000F0DCFB08217B1820221A807B1802229D
:100D400019000020FFF7F8FCC046BD460FB0F0BD0B
:100D50001401002080B582B000AF3B0018000823CA
:100D60001A00002101F0E1FE3B0002221A603B0064
:100D700000225A603B001021180001F079FD031E8B
:100D800001D000F06CF8C046BD4602B080BD80B511
:100D900086B000AF3B00180018231A00002101F0B4
:100DA000C4FE3B0002221A603B00802252015A61BD
:100DB0003B00180001F07EFE031E01D000F04FF84A
:100DC000C046BD4606B080BD80B500AF1C4B822238
:100DD000D2051A601A4B1B4A5A60194B00229A60BE
:100DE000174B0122DA60164B00221A61144B0022C5
:100DF0005A61134B00229A61114B0022DA61104BA9
:100E000000221A620E4B180000F0EEFD031E01D006
:100E100000F025F80A4B0021180001F0E9FB031E41
:100E200001D000F01CF8064B0021180001F02CFC4A
:100E3000031E01D000F013F8C046BD4680BDC04679
:100E4000C00000205B3D300080B500AF0420FFF7FC
:100E50005DFC0820FFF75AFCC046BD4680BD80B54A
:100E600000AF72B6C046C046FDE7000080B582B054
:100E700000AF7860084B1A6A7B68D943064B0A407A
:100E80001A62054B5A6A7B68D943034B0A405A627F
:100E9000C046BD4602B080BD0000504880B582B05B
:100EA00000AF7860084B9A6A7B68D943064B0A40CA
:100EB0009A62054BDA6A7B68D943034B0A40DA62CF
:100EC000C046BD4602B080BD0000504880B584B029
:100ED00000AF7860074B196D064B7A680A431A65B4
:100EE000044B1B6D7A681340FB60FB68C046BD462F
:100EF00004B080BD0000404880B584B000AF786089
:100F0000074B596D064B7A680A435A65044B5B6D73
:100F10007A681340FB60FB68C046BD4604B080BDE4
:100F20000000404880B584B000AF7860074B996DF1
:100F3000064B7A680A439A65044B9B6D7A681340A6
:100F4000FB60FB68C046BD4604B080BD0000404861
:100F500080B500AF80235B001800FFF7CDFFC046CF
:100F6000BD4680BD90B589B000AF78600C243B19B8
:100F7000180014231A00002101F0D7FD7B681A68BD
:100F80008223DB059A423CD10420FFF79FFF082013
:100F9000FFF79CFF3B1901221A603B1912225A608D
:100FA0003B1900229A603B190022DA603B190022AB
:100FB0001A613A199023DB051100180000F06EFB4E
:100FC00021007B1880221A607B1812225A607B183D
:100FD00000229A607B180022DA607B1800221A61D6
:100FE0007B180A4A1900100000F058FB0120FFF797
:100FF0003DFF8020FFF752FF80239B031800FFF77F
:1010000091FFC046BD4609B090BDC04600001048E3
:1010100080B500AFC046FDE780B500AFC046FDE734
:1010200080B500AFC046BD4680BD80B500AFC046AC
:10103000BD4680BD80B500AF00F032FAC046BD4667
:1010400080BD000090B583B000AF02003960FB1D89
:101050001A70FB1D1B787F2B28D82F4AFB1D1B788D
:101060005BB29B08C0339B009B58FA1D127811009D
:1010700003220A40D200FF2191400A00D2431A40C5
:1010800011003B689B01FF221A40FB1D1B781800D2
:1010900003230340DB009A401F48FB1D1B785BB213
:1010A0009B080A43C0339B001A5031E01B4AFB1DCA
:1010B0001B7819000F230B40083B9B0806339B004D
:1010C000D31804331B68FA1D1278110003220A405A
:1010D000D200FF2191400A00D2431A4011003B6820
:1010E0009B01FF221A40FB1D1B78180003230340BD
:1010F000DB009A400948FB1D1B781C000F2323408E
:10110000083B9B080A4306339B00C31804331A604C
:10111000C046BD4603B090BD00E100E000ED00E038
:1011200080B500AFBFF34F8FC046044B044ADA606E
:10113000BFF34F8FC046C046FDE7C04600ED00E05C
:101140000400FA0590B587B000AF644A9423D358E1
:10115000002B0ED1624B1B69002B03D1604B9B6BA4
:10116000002B06D05F4B01229A6000F001F9FFF7D7
:10117000D7FF5D4B5D4A9A605B4B9A68594B1A6189
:10118000574B5A68564B20210A435A60544B5A68B1
:10119000534B40210A435A60514B5A68504B8021AF
:1011A0000A435A604E4B5A684D4B51490A405A60A7
:1011B000C0464B4B5B6904221340042BF9D1484BCA
:1011C000DB69302293431A00454B20210A43DA6140
:1011D000434BDA69424B47490A40DA61404BDA69CE
:1011E0003F4B802149000A43DA61434B1B68434A65
:1011F000934255D01F233B610823FB600A23BB6049
:1012000003237B60354BDB681E2293431900FB6888
:101210005A00324B0A43DA60304BDA682F4B012117
:101220000A43DA602D4BDB68354A134019003B69ED
:101230001A062A4B0A43DA60284BDA68274B8021CA
:1012400009040A43DA60264A9423D3582D4A1A40E7
:10125000BB689901F0239B000B4021491343942262
:101260008B501F4A9423D3581D49202213439422A4
:101270008B501B4A9423D358234A1A407B68D902C7
:10128000E0239B010B401649134394228B50144AD0
:101290009423D35812498022D200134394228B50B6
:1012A0001723FB1800221A700DE017243B191B7836
:1012B0005BB203211800FFF7C5FE21007B181A78E6
:1012C0007B1801321A701723FB181B781F2BECD9DF
:1012D00062B6C046C046BD4607B090BD000040485B
:1012E000000050480400002000ED00E00000041061
:1012F000FFFEFFFFFFFBFFFFF81E0010CCECBCFC65
:10130000FFFFFFC03FFCFFFFFFC7FFFF80B582B0BC
:1013100000AF134B9B685B08DAB2FB1D01210A404A
:101320001A700F4B9B681B0ADAB2BB1D07210A40DB
:101330001A70FB1D1B78002B07D0BB1D1B78013BCF
:10134000084ADA40084B1A6005E0BB1D1B78074AC3
:10135000DA40054B1A60C046BD4602B080BDC046AB
:10136000000040480048E8011C0100200090D00324
:1013700080B500AFC046BD4680BD00001048854620
:10138000FFF7E0FE002103E00E4B5B5843500431B1
:101390000D480E4B42189A42F6D30D4A02E0002344
:1013A000136004320B4B9A42F9D30B4A02E000233C
:1013B00013600432094B9A42F9D3FFF705FAFEE7AE
:1013C00000000120442B04101C01002028010020F3
:1013D000C00000201C010020C0000020C000002030
:1013E000FEE780B582B000AFFB1D00221A7003201B
:1013F00000F00EF8031E03D0FB1D01221A7001E05D
:10140000FFF7A6FDFB1D1B781800BD4602B080BD8E
:1014100090B585B000AF78600F23FB1800221A70DA
:101420001D4B1B78002B2CD001F0CEFA04001A4B78
:101430001B781900FA239800FEF742FE03001900FA
:101440002000FEF73DFE0300180000F01AF9031E0D
:1014500012D17B68032B0AD8796801235B420022F2
:10146000180000F0F9F80D4B7A681A600DE00F23B0
:10147000FB1801221A7008E00F23FB1801221A70D2
:1014800003E00F23FB1801221A700F23FB181B78AF
:101490001800BD4605B090BD2401002020010020A9
:1014A00080B500AF054B1B781A00054B1B68D2189E
:1014B000034B1A60C046BD4680BDC04624010020D3
:1014C0001801002080B500AF024B1B681800BD4614
:1014D00080BDC0461801002080B500AF024B1B68DC
:1014E0001800BD4680BDC0462001002080B584B0F4
:1014F00000AF7860FFF7E6FF0300BB607B68FB602E
:10150000FB68013305D00A4B1B781A00FB689B1857
:10151000FB60C046FFF7D6FF0200BB68D31AFA682B
:101520009A42F7D8C046C046BD4604B080BDC0460A
:101530002401002090B583B000AF02003960FB1D8C
:101540001A70FB1D1B787F2B28D82F4AFB1D1B7898
:101550005BB29B08C0339B009B58FA1D12781100A8
:1015600003220A40D200FF2191400A00D2431A40D0
:1015700011003B689B01FF221A40FB1D1B781800DD
:1015800003230340DB009A401F48FB1D1B785BB21E
:101590009B080A43C0339B001A5031E01B4AFB1DD5
:1015A0001B7819000F230B40083B9B0806339B0058
:1015B000D31804331B68FA1D1278110003220A4065
:1015C000D200FF2191400A00D2431A4011003B682B
:1015D0009B01FF221A40FB1D1B78180003230340C8
:1015E000DB009A400948FB1D1B781C000F23234099
:1015F000083B9B080A4306339B00C31804331A6058
:10160000C046BD4603B090BD00E100E000ED00E043
:1016100080B582B000AF78607B685A1E80235B047F
:101620009A4201D3012310E00A4B7A68013A5A60CA
:1016300001235B4203211800FFF77CFF054B0022CA
:101640009A60044B07221A6000231800BD4602B0BE
:1016500080BDC04610E000E080B584B000AFB96046
:101660007A600F217B18021C1A70BA687B181B78ED
:101670005BB211001800FFF75DFFC046BD4604B025
:1016800080BD80B582B000AF78607B681800FFF73E
:10169000BFFF03001800BD4602B080BD80B586B014
:1016A00000AF7860396000237B6190E13B681B6884
:1016B00001217A6991400A001340FB60FB68002B0E
:1016C00000D181E13B685B6803221340012B05D008
:1016D0003B685B6803221340022B30D17B689B6818
:1016E0003B617B695B0003229A401300DA433B694C
:1016F00013403B613B68DA687B695B009A401300EA
:101700003A6913433B617B683A699A607B685B681E
:101710003B6101227B699A401300DA433B69134025
:101720003B613B685B681B0901221A407B699A4058
:1017300013003A6913433B617B683A695A603B681E
:101740005B6803221340032B17D07B68DB683B6187
:101750007B695B0003229A401300DA433B69134024
:101760003B613B689A687B695B009A4013003A6969
:1017700013433B617B683A69DA603B685B6803222C
:101780001340022B23D17B69DA087B680832920070
:10179000D3583B617B69072213409B000F229A407C
:1017A0001300DA433B6913403B613B681A697B696C
:1017B00007210B409B009A4013003A6913433B6199
:1017C0007B69DA087B68083292003969D1507B68FE
:1017D0001B683B617B695B0003229A401300DA437C
:1017E0003B6913403B613B685B6803221A407B699D
:1017F0005B009A4013003A6913433B617B683A6986
:101800001A603B685A68C0239B02134000D1DBE09A
:101810003B685A688023DB02134030D08023DB050D
:10182000DB683B617A689023DB059A4211D1012283
:101830007B699A401300DB431A003B6913403B610C
:1018400001227B699A4013001A003B6913433B61F4
:1018500011E001227B699A4013001B04DB431A004C
:101860003B6913403B6101227B699A4013001B04D2
:101870003A6913433B618023DB053A69DA603B68D0
:101880005A6880235B03134030D08023DB051B693B
:101890003B617A689023DB059A4211D101227B6972
:1018A0009A401300DB431A003B6913403B6101225D
:1018B0007B699A4013001A003B6913433B6111E0B6
:1018C00001227B699A4013001B04DB431A003B6929
:1018D00013403B6101227B699A4013001B043A6963
:1018E00013433B618023DB053A691A613B685A6800
:1018F0008023DB03134030D08023DB055B693B6131
:101900007A689023DB059A4211D101227B699A40C3
:101910001300DB431A003B6913403B6101227B69E2
:101920009A4013001A003B6913433B6111E0012206
:101930007B699A4013001B04DB431A003B69134088
:101940003B6101227B699A4013001B043A691343EF
:101950003B618023DB053A695A613B685A68802302
:101960005B02134030D08023DB059B693B617A68C2
:101970009023DB059A4211D101227B699A40130022
:10198000DB431A003B6913403B6101227B699A40AB
:1019900013001A003B6913433B6111E001227B698C
:1019A0009A4013001B04DB431A003B6913403B6160
:1019B00001227B699A4013001B043A6913433B617F
:1019C0008023DB053A699A617B6901337B613B685F
:1019D0001A687B69DA40131E00D067E6C046C0462D
:1019E000BD4606B080BD000080B582B000AF786013
:1019F0007B68002B01D101238FE07B6841229B5C37
:101A0000DBB2002B07D17B684022002199547B6810
:101A10001800FFF7A7FA7B684122242199547B68BC
:101A20001B681A687B681B6801218A431A607B68FF
:101A30005A687B681B683B490A401A617B681B68CF
:101A40009A687B681B6838490A409A607B68DB6843
:101A5000012B08D17B689A687B681B68802109028A
:101A60000A439A6007E07B689A687B681B68842158
:101A700009020A439A607B68DB68022B09D17B6804
:101A80001B685A687B681B68802109010A435A60F9
:101A900007E07B681B685A687B681B6823490A401B
:101AA0005A607B681B685A687B681B6820490A4338
:101AB0005A607B681B68DA687B681B681A490A40B1
:101AC000DA607B681A697B685B691A4311007B687E
:101AD0009B691A027B681B680A43DA607B68D969D4
:101AE0007B681A6A7B681B680A431A607B681B68FC
:101AF0001A687B681B6801210A431A607B68002210
:101B00005A647B684122202199547B6800221A6321
:101B10007B6842220021995400231800BD4602B080
:101B200080BDC046FFFFFFF0FF7FFFFFFFF7FFFF15
:101B30000080000290B589B002AFF8600C00100080
:101B400019000A23FB18221C1A800823FB18021C08
:101B50001A80BB1D0A1C1A80FB6841229B5CDBB209
:101B6000202B00D00CE1BB6A002B04D02C23FB18E7
:101B70001B88002B05D1FB68802292005A64012348
:101B8000FFE0FB6840229B5C012B01D10223F8E0BF
:101B9000FB68402201219954FFF794FC03007B610C
:101BA00080231902F8687B6900931923012200F051
:101BB0000BFB031E01D00123E3E0FB68412221213E
:101BC0009954FB68422240219954FB6800225A64D0
:101BD000FB68BA6A5A62FB682C22BA1812885A85C6
:101BE000FB6800225A63BB1D1C880823FB181A8857
:101BF0000A23FB181988F8687B6901933B6B0093F3
:101C0000230000F0F9F9031E05D0FB6840220021F3
:101C100099540123B5E0FB685B8D9BB2FF2B11D972
:101C2000FB68FF221A85FB681B8DDAB280235C04F7
:101C30000A23FB181988F86800230093230000F09A
:101C40009DFC12E0FB685B8D9AB2FB681A85FB680D
:101C50001B8DDAB280239C040A23FB181988F868CC
:101C600000230093230000F089FC7A69396BFB683C
:101C7000180000F001FB031E01D0012381E0FB6886
:101C80005B6A1A78FB681B689A62FB685B6A5A1C7D
:101C9000FB685A62FB685B8D9BB2013B9AB2FB68A2
:101CA0005A85FB681B8D013B9AB2FB681A85FB685D
:101CB0005B8D9BB2002B3AD0FB681B8D002B36D17D
:101CC0003A6BF8687B69009313000022802100F0D2
:101CD0007BFA031E01D0012353E0FB685B8D9BB2AE
:101CE000FF2B11D9FB68FF221A85FB681B8DDAB226
:101CF00080235C040A23FB181988F86800230093EA
:101D0000230000F03BFC12E0FB685B8D9AB2FB689D
:101D10001A85FB681B8DDAB280239C040A23FB180A
:101D20001988F86800230093230000F027FCFB6863
:101D30005B8D9BB2002B98D17A69396BFB681800D8
:101D400000F0E0FA031E01D001231AE0FB681B68D3
:101D50002022DA61FB681B685A68FB681B680B4924
:101D60000A405A60FB68412220219954FB684222B4
:101D700000219954FB68402200219954002300E07F
:101D800002231800BD4607B090BDC04600E800FE23
:101D900090B589B002AFF8600C00100019000A235A
:101DA000FB18221C1A800823FB18021C1A80BB1D7A
:101DB0000A1C1A80FB6841229B5CDBB2202B00D0FE
:101DC00010E1BB6A002B04D02C23FB181B88002BCE
:101DD00005D1FB68802292005A64012303E1FB686D
:101DE00040229B5C012B01D10223FCE0FB684022D6
:101DF00001219954FFF766FB03007B6180231902E0
:101E0000F8687B6900931923012200F0DDF9031EB5
:101E100001D00123E7E0FB68412222219954FB68AD
:101E2000422240219954FB6800225A64FB68BA6A36
:101E30005A62FB682C22BA1812885A85FB68002265
:101E40005A63BB1D1C880823FB181A880A23FB1839
:101E50001988F8687B6901933B6B0093230000F0BD
:101E60002FF9031E05D0FB6840220021995401235D
:101E7000B9E0FB685B8D9BB2FF2B11D9FB68FF2299
:101E80001A85FB681B8DDAB280235C040A23FB18D9
:101E90001988F868564B0093230000F06FFB12E09E
:101EA000FB685B8D9AB2FB681A85FB681B8DDAB202
:101EB00080239C040A23FB181988F8684C4B009374
:101EC000230000F05BFB3A6BF8687B69009313001A
:101ED0000022042100F078F9031E01D0012382E0E2
:101EE000FB681B685A6AFB685B6AD2B21A70FB68AF
:101EF0005B6A5A1CFB685A62FB681B8D013B9AB2F5
:101F0000FB681A85FB685B8D9BB2013B9AB2FB684C
:101F10005A85FB685B8D9BB2002B3AD0FB681B8D0A
:101F2000002B36D13A6BF8687B69009313000022CE
:101F3000802100F049F9031E01D0012353E0FB6822
:101F40005B8D9BB2FF2B11D9FB68FF221A85FB68C2
:101F50001B8DDAB280235C040A23FB181988F86809
:101F600000230093230000F009FB12E0FB685B8D67
:101F70009AB2FB681A85FB681B8DDAB280239C0439
:101F80000A23FB181988F86800230093230000F047
:101F9000F5FAFB685B8D9BB2002B94D17A69396BA3
:101FA000FB68180000F0AEF9031E01D001231AE00F
:101FB000FB681B682022DA61FB681B685A68FB68B3
:101FC0001B680C490A405A60FB6841222021995441
:101FD000FB68422200219954FB6840220021995459
:101FE000002300E002231800BD4607B090BDC046A4
:101FF0000024008000E800FEB0B586B002AFF860B3
:102000000C00100019000A257B19221C1A800823D5
:10201000FB18021C1A80BB1D0A1C1A80BB1D1B88E2
:10202000DAB280235C047B191988F868234B00938B
:10203000230000F0A3FA7A6A396AFB68180000F0FE
:102040001BF9031E01D0012333E0BB1D1B88012BAC
:1020500007D10823FB181B88DAB2FB681B689A6259
:1020600019E00823FB181B881B0A9BB2DAB2FB6835
:102070001B689A627A6A396AFB68180000F0FCF8FB
:10208000031E01D0012314E00823FB181B88DAB2D9
:10209000FB681B689A623A6AF8687B6A00931300CF
:1020A0000022802100F090F8031E01D0012300E0FF
:1020B00000231800BD4604B0B0BDC046002000801B
:1020C000B0B586B002AFF8600C00100019000A2508
:1020D0007B19221C1A800823FB18021C1A80BB1DC6
:1020E0000A1C1A80BB1D1B88DAB27B191988F86894
:1020F000234B0093002300F041FA7A6A396AFB68A7
:10210000180000F0B9F8031E01D0012333E0BB1D15
:102110001B88012B07D10823FB181B88DAB2FB6848
:102120001B689A6219E00823FB181B881B0A9BB2E4
:10213000DAB2FB681B689A627A6A396AFB6818002F
:1021400000F09AF8031E01D0012314E00823FB18C5
:102150001B88DAB2FB681B689A623A6AF8687B6A85
:10216000009313000022402100F02EF8031E01D03E
:10217000012300E000231800BD4604B0B0BDC046F6
:102180000020008080B582B000AF78607B681B685B
:102190009B6902221340022B03D17B681B6800223B
:1021A0009A627B681B689B6901221340012B07D050
:1021B0007B681B689A697B681B6801210A439A61E6
:1021C000C046BD4602B080BD80B584B000AFF860A7
:1021D000B9603B60FB1D1A703AE0BA693968FB6868
:1021E000180000F0D3F8031E01D0012340E03B6843
:1021F00001332DD0FFF766F90200BB69D31A3A68A4
:102200009A4202D33B68002B22D1FB681B689B6972
:10221000BA681340BA68D31A5A425341DBB21A0063
:10222000FB1D1B789A4213D1FB685B6C20221A437A
:10223000FB685A64FB68412220219954FB684222C2
:1022400000219954FB6840220021995401230FE09A
:10225000FB681B689B69BA681340BA68D31A5A4274
:102260005341DBB21A00FB1D1B789A42B5D0002304
:102270001800BD4604B080BD80B584B000AFF860E2
:10228000B9607A6032E07A68B968FB68180000F0DB
:102290007DF8031E01D0012330E0BB68013325D057
:1022A000FFF710F902007B68D31ABA689A4202D38A
:1022B000BB68002B1AD1FB681B689B690222134084
:1022C000022B13D0FB685B6C20221A43FB685A6414
:1022D000FB68412220219954FB6842220021995435
:1022E000FB68402200219954012307E0FB681B682A
:1022F0009B6902221340022BC5D100231800BD4662
:1023000004B080BD80B584B000AFF860B9607A6079
:102310002FE07A68B968FB68180000F037F8031EF0
:1023200001D001232DE0FFF7CDF802007B68D31A1E
:10233000BA689A4202D3BB68002B1AD1FB681B68AB
:102340009B6920221340202B13D0FB685B6C20225A
:102350001A43FB685A64FB68412220219954FB68A8
:10236000422200219954FB68402200219954012304
:1023700007E0FB681B689B6920221340202BC8D113
:1023800000231800BD4604B080BD000080B58AB0AF
:1023900000AFF860B9607A602723FB1800221A703A
:1023A000FB681B689B69BB6100233B627B68FB6128
:1023B000BB691022134000D179E0FB681B68102232
:1023C000DA6157E02722BB18BA1812781A70BB6876
:1023D00001334FD0FFF776F80200FB69D31ABA68D1
:1023E0009A4202D3BB68002B44D1FB681B685A6831
:1023F0008023DB0113407B6113203B18FA684221E4
:10240000525C1A70FB681B689A6980231B021A4091
:1024100080231B029A4226D17A698023DB019A42EB
:1024200021D03B181B78202B1DD0FB681B685A68F5
:10243000FB681B688021C9010A435A60FFF742F814
:102440000300FB610FE0FFF73DF80200FB69D31AC0
:10245000192B08D93B6A202213433B622723FB1820
:1024600001221A7006E0FB681B689B69202213405A
:10247000202BE8D1FB681B689B6920221340202B8E
:1024800004D02723FB181B78002B9BD02723FB1895
:102490001B78002B03D1FB681B682022DA613B6AA2
:1024A000042213433B622723FB1801221A70FB68A6
:1024B0001B689B69BB61BA6980235B0013400CD029
:1024C0003B6A012213433B62FB681B688022520077
:1024D000DA612723FB1801221A70BA698023DB0016
:1024E00013400CD03B6A082213433B62FB681B6815
:1024F0008022D200DA612723FB1801221A70BA6900
:1025000080239B0013400CD03B6A022213433B62A2
:10251000FB681B6880229200DA612723FB180122E6
:102520001A702723FB181B78002B1DD0FB6818009E
:10253000FFF728FEFB681B685A68FB681B680E499A
:102540000A405A60FB685A6C3B6A1A43FB685A643B
:10255000FB68412220219954FB68422200219954B2
:10256000FB684022002199542723FB181B78180090
:10257000BD460AB080BDC04600E800FE90B587B0F9
:1025800000AFF860080011007B600A243B19021CB0
:102590001A8009203B180A1C1A703B191B889B05DE
:1025A0009A0D3B181B781904FF231B040B401A4398
:1025B0007B681A43BB6A13435B005B087B61FB6863
:1025C0001B685B68BA6A510D8022D2000A40074935
:1025D0000A43D2431A401100FB681B687A690A4318
:1025E0005A60C046BD4607B090BDC046FF63FF03BA
:1025F00080B582B000AF786039607B6841229B5C17
:10260000DBB2202B38D17B6840229B5C012B01D1AF
:10261000022332E07B684022012199547B684122E9
:10262000242199547B681B681A687B681B68012108
:102630008A431A607B681B681A687B681B681149AB
:102640000A401A607B681B6819687B681B683A68D7
:102650000A431A607B681B681A687B681B68012143
:102660000A431A607B684122202199547B684022EA
:1026700000219954002300E002231800BD4602B057
:1026800080BDC046FFEFFFFF80B584B000AF78602B
:1026900039607B6841229B5CDBB2202B39D17B689F
:1026A00040229B5C012B01D1022333E07B68402256
:1026B000012199547B684122242199547B681B682D
:1026C0001A687B681B6801218A431A607B681B6853
:1026D0001B68FB60FB68114A1340FB603B681B02F0
:1026E000FA681343FB607B681B68FA681A607B68B2
:1026F0001B681A687B681B6801210A431A607B68A3
:102700004122202199547B684022002199540023C2
:1027100000E002231800BD4604B080BDFFF0FFFFBB
:1027200080B500AF074B1A6880239B021A408023B4
:102730009B029A4201D1012300E000231800BD460C
:1027400080BDC0460000404880B500AF074B9A6886
:10275000064B04218A439A60044B9A68034B02217A
:102760008A439A60C046BD4680BDC04600004048CE
:1027700080B500AF074B1A688023DB001A40802326
:10278000DB009A4201D1012300E000231800BD467E
:1027900080BDC0460000404880B582B000AFC04652
:1027A0000F4B1A6880239B021340F9D00C4B9A6898
:1027B0000B4B02210A439A6000237B6003E0C04672
:1027C0007B6801337B607B68052BF8DD044B9A68DE
:1027D000034B04210A439A60C046BD4602B080BD47
:1027E0000000404880B500AF044B1A68034B8021BD
:1027F00089010A431A60C046BD4680BD00004048BA
:1028000080B500AF044B1A68034B04490A401A60B4
:10281000C046BD4680BDC04600004048FFDFFFFF08
:1028200080B500AF074B1A688023DB011A40802374
:10283000DB019A4201D1012300E000231800BD46CC
:1028400080BDC0460000404880B582B000AF7860CF
:10285000064B9B68E02293431900044B7A680A43B5
:102860009A60C046BD4602B080BDC04600004048E8
:1028700080B584B000AF786039607B68002B01D1EF
:10288000012398E04E4B5B683022934319004C4B78
:102890003A680A435A607B681B68022B0ED1FFF727
:1028A00053FFFFF765FF031E01D1012383E0FFF70C
:1028B000A7FF7B685B681800FFF7C6FF7B681B6893
:1028C000002B24D1FFF754FF031E01D1012372E036
:1028D000FFF726FF031E01D101236CE0FFF782FF03
:1028E000FEF7F0FD0300FB6008E0FEF7EBFD0200E1
:1028F000FB68D31A022B01D903235CE0FFF790FF9A
:10290000031EF2D07B685B681800FFF79DFF7B68B1
:102910001B68012B17D1FFF73FFFFFF729FF031EAD
:1029200001D0012347E0FFF7FBFE031E01D1012385
:1029300041E0244B9B68E022934319007B685A686E
:10294000204B0A439A601E4B5B68302213403A6862
:102950009A421DD01A4B5B68302293431900184BE2
:102960003A680A435A60FEF7ADFD0300FB6008E0D9
:10297000FEF7A8FD0200FB68D31A022B01D903233E
:1029800019E00F4B5B68302213403A689A42EFD14E
:102990000023BB6003E0C046BB680133BB60BB687B
:1029A000052BF8DDFEF7B2FCFEF796FD03001800DC
:1029B000FEF72EFD03001800BD4604B080BDC046E2
:1029C000001000400000404880B500AF024B1B687B
:1029D0001800BD4680BDC0461C01002080B582B0F5
:1029E00000AF7860064B9B68064A13401900044B01
:1029F0007A680A439A60C046BD4602B080BDC046B0
:102A000000004048FF7FFEFF80B582B000AF7860D5
:102A1000064B1B6E042293431900044B7A680A4349
:102A20001A66C046BD4602B080BDC04600004048A0
:102A300080B582B000AF7860064B9B68064A1340B1
:102A40001900044B7A680A439A60C046BD4602B03A
:102A500080BDC04600004048FFEFFFFF80B582B058
:102A600000AF7860064B9B68064A13401900044B80
:102A70007A680A439A60C046BD4602B080BDC0462F
:102A800000004048FFDFFFFF80B582B000AF7860F4
:102A9000064B9B68064A13401900044B7A680A43A8
:102AA0009A60C046BD4602B080BDC04600004048A6
:102AB000FFFF3FFF80B582B000AF78607B681B6886
:102AC0000122134004D07B681B691800FFF79CFFAC
:102AD0007B681B680222134004D07B685B69180086
:102AE000FFF7A6FF7B681B680822134004D07B68B1
:102AF0005B681800FFF7C8FF7B681B681022134053
:102B000004D07B68DB681800FFF7A8FF7B689B6830
:102B10002022134004D07B689B681800FFF75EFFFB
:102B200000231800BD4602B080BD03008218934206
:0C2B300000D1704719700133F9E7000074
:042B3C00F8B5C046E2
:042B4000F8B5C046DE
:0C2B44000024F400040000000100000068
:040000051004137D53
:00000001FF
